{
    "_format": "hh-sol-artifact-1",
    "contractName": "BaseTokenManagerDeployer",
    "sourceName": "contracts/BaseTokenManagerDeployer.sol",
    "abi": [
        {
            "inputs": [],
            "stateMutability": "nonpayable",
            "type": "constructor"
        },
        {
            "anonymous": false,
            "inputs": [
                {
                    "indexed": false,
                    "internalType": "address",
                    "name": "previousAdmin",
                    "type": "address"
                },
                {
                    "indexed": false,
                    "internalType": "address",
                    "name": "newAdmin",
                    "type": "address"
                }
            ],
            "name": "AdminChanged",
            "type": "event"
        },
        {
            "anonymous": false,
            "inputs": [
                {
                    "indexed": true,
                    "internalType": "string",
                    "name": "symbolPrefix",
                    "type": "string"
                },
                {
                    "indexed": false,
                    "internalType": "address",
                    "name": "baseTokenManager",
                    "type": "address"
                }
            ],
            "name": "BaseTokenManagerDeployed",
            "type": "event"
        },
        {
            "anonymous": false,
            "inputs": [
                {
                    "indexed": true,
                    "internalType": "address",
                    "name": "beacon",
                    "type": "address"
                }
            ],
            "name": "BeaconUpgraded",
            "type": "event"
        },
        {
            "anonymous": false,
            "inputs": [
                {
                    "indexed": false,
                    "internalType": "uint8",
                    "name": "version",
                    "type": "uint8"
                }
            ],
            "name": "Initialized",
            "type": "event"
        },
        {
            "anonymous": false,
            "inputs": [
                {
                    "indexed": true,
                    "internalType": "address",
                    "name": "implementation",
                    "type": "address"
                }
            ],
            "name": "Upgraded",
            "type": "event"
        },
        {
            "inputs": [],
            "name": "baseTokenManagerBeacon",
            "outputs": [
                {
                    "internalType": "contract TheaUpgradeableBeacon",
                    "name": "",
                    "type": "address"
                }
            ],
            "stateMutability": "view",
            "type": "function"
        },
        {
            "inputs": [
                {
                    "internalType": "contract BaseERC20",
                    "name": "baseTokenImplementation",
                    "type": "address"
                },
                {
                    "internalType": "string",
                    "name": "baseTokenNamePrefix",
                    "type": "string"
                },
                {
                    "internalType": "string",
                    "name": "baseTokenSymbolPrefix",
                    "type": "string"
                },
                {
                    "components": [
                        {
                            "internalType": "string[]",
                            "name": "vccSources",
                            "type": "string[]"
                        },
                        {
                            "internalType": "string[]",
                            "name": "countries",
                            "type": "string[]"
                        },
                        {
                            "internalType": "uint256",
                            "name": "vintage",
                            "type": "uint256"
                        },
                        {
                            "internalType": "string[]",
                            "name": "regions",
                            "type": "string[]"
                        },
                        {
                            "internalType": "uint256",
                            "name": "sdgsCount",
                            "type": "uint256"
                        },
                        {
                            "internalType": "bytes32[]",
                            "name": "boolCharacteristics",
                            "type": "bytes32[]"
                        },
                        {
                            "internalType": "uint256",
                            "name": "rating",
                            "type": "uint256"
                        }
                    ],
                    "internalType": "struct BaseCharacteristics",
                    "name": "baseCharacteristics",
                    "type": "tuple"
                }
            ],
            "name": "deployBaseToken",
            "outputs": [
                {
                    "internalType": "contract BaseTokenManager",
                    "name": "",
                    "type": "address"
                }
            ],
            "stateMutability": "nonpayable",
            "type": "function"
        },
        {
            "inputs": [
                {
                    "internalType": "contract AccessController",
                    "name": "accessController_",
                    "type": "address"
                },
                {
                    "internalType": "contract BaseTokenManager",
                    "name": "baseTokenManagerImplementation_",
                    "type": "address"
                },
                {
                    "internalType": "contract TheaERC20",
                    "name": "vintageToken_",
                    "type": "address"
                },
                {
                    "internalType": "contract TheaERC20",
                    "name": "sdgToken_",
                    "type": "address"
                },
                {
                    "internalType": "contract TheaERC20",
                    "name": "ratingToken_",
                    "type": "address"
                },
                {
                    "internalType": "contract Registry",
                    "name": "registry_",
                    "type": "address"
                }
            ],
            "name": "initialize",
            "outputs": [],
            "stateMutability": "nonpayable",
            "type": "function"
        },
        {
            "inputs": [],
            "name": "proxiableUUID",
            "outputs": [
                {
                    "internalType": "bytes32",
                    "name": "",
                    "type": "bytes32"
                }
            ],
            "stateMutability": "view",
            "type": "function"
        },
        {
            "inputs": [],
            "name": "ratingToken",
            "outputs": [
                {
                    "internalType": "contract TheaERC20",
                    "name": "",
                    "type": "address"
                }
            ],
            "stateMutability": "view",
            "type": "function"
        },
        {
            "inputs": [],
            "name": "registry",
            "outputs": [
                {
                    "internalType": "contract Registry",
                    "name": "",
                    "type": "address"
                }
            ],
            "stateMutability": "view",
            "type": "function"
        },
        {
            "inputs": [],
            "name": "sdgToken",
            "outputs": [
                {
                    "internalType": "contract TheaERC20",
                    "name": "",
                    "type": "address"
                }
            ],
            "stateMutability": "view",
            "type": "function"
        },
        {
            "inputs": [
                {
                    "internalType": "contract TheaUpgradeableBeacon",
                    "name": "newBaseTokenManagerBeacon",
                    "type": "address"
                }
            ],
            "name": "setBaseTokenManagerBeacon",
            "outputs": [],
            "stateMutability": "nonpayable",
            "type": "function"
        },
        {
            "inputs": [
                {
                    "internalType": "address",
                    "name": "newImplementation",
                    "type": "address"
                }
            ],
            "name": "upgradeTo",
            "outputs": [],
            "stateMutability": "nonpayable",
            "type": "function"
        },
        {
            "inputs": [
                {
                    "internalType": "address",
                    "name": "newImplementation",
                    "type": "address"
                },
                {
                    "internalType": "bytes",
                    "name": "data",
                    "type": "bytes"
                }
            ],
            "name": "upgradeToAndCall",
            "outputs": [],
            "stateMutability": "payable",
            "type": "function"
        },
        {
            "inputs": [],
            "name": "vintageToken",
            "outputs": [
                {
                    "internalType": "contract TheaERC20",
                    "name": "",
                    "type": "address"
                }
            ],
            "stateMutability": "view",
            "type": "function"
        }
    ],
    "bytecode": "0x60a06040523060805234801561001457600080fd5b5061001d610022565b6100e2565b600054610100900460ff161561008e5760405162461bcd60e51b815260206004820152602760248201527f496e697469616c697a61626c653a20636f6e747261637420697320696e697469604482015266616c697a696e6760c81b606482015260840160405180910390fd5b60005460ff90811610156100e0576000805460ff191660ff9081179091556040519081527f7f26b83ff96e1f2b6a682f133852f6798a09c465da95921460cefb38474024989060200160405180910390a15b565b608051612997610119600039600081816102d00152818161031c015281816103ad015281816103f0015261047101526129976000f3fe608060405260043610620000a95760003560e01c80637101985e116200006c5780637101985e14620001775780637b1039991462000199578063a52dbf4a14620001bb578063a55c689714620001dd578063cc2a9a5b14620001ff578063fa8651e5146200022457600080fd5b80630530df2c14620000ae5780630e17029a14620000d55780633659cfe614620001145780634f1ef286146200013957806352d1902d1462000150575b600080fd5b348015620000bb57600080fd5b50620000d3620000cd36600462000ead565b62000249565b005b348015620000e257600080fd5b50606554620000f7906001600160a01b031681565b6040516001600160a01b0390911681526020015b60405180910390f35b3480156200012157600080fd5b50620000d36200013336600462000ead565b620002c6565b620000d36200014a36600462000ee3565b620003a3565b3480156200015d57600080fd5b506200016862000464565b6040519081526020016200010b565b3480156200018457600080fd5b50606654620000f7906001600160a01b031681565b348015620001a657600080fd5b50606954620000f7906001600160a01b031681565b348015620001c857600080fd5b50606854620000f7906001600160a01b031681565b348015620001ea57600080fd5b50606754620000f7906001600160a01b031681565b3480156200020c57600080fd5b50620000d36200021e36600462000fb3565b6200051a565b3480156200023157600080fd5b50620000f7620002433660046200108e565b620006d4565b600062000255620008ab565b6040516312d9a6ad60e01b8152600481018390523360248201526001600160a01b0391909116906312d9a6ad9060440160006040518083038186803b1580156200029e57600080fd5b505afa158015620002b3573d6000803e3d6000fd5b50505050620002c282620008de565b5050565b6001600160a01b037f00000000000000000000000000000000000000000000000000000000000000001630036200031a5760405162461bcd60e51b8152600401620003119062001137565b60405180910390fd5b7f00000000000000000000000000000000000000000000000000000000000000006001600160a01b03166200034e62000900565b6001600160a01b031614620003775760405162461bcd60e51b8152600401620003119062001183565b620003828162000918565b60408051600080825260208201909252620003a0918391906200098a565b50565b6001600160a01b037f0000000000000000000000000000000000000000000000000000000000000000163003620003ee5760405162461bcd60e51b8152600401620003119062001137565b7f00000000000000000000000000000000000000000000000000000000000000006001600160a01b03166200042262000900565b6001600160a01b0316146200044b5760405162461bcd60e51b8152600401620003119062001183565b620004568262000918565b620002c2828260016200098a565b6000306001600160a01b037f00000000000000000000000000000000000000000000000000000000000000001614620005065760405162461bcd60e51b815260206004820152603860248201527f555550535570677261646561626c653a206d757374206e6f742062652063616c60448201527f6c6564207468726f7567682064656c656761746563616c6c0000000000000000606482015260840162000311565b506000805160206200291b83398151915290565b600054610100900460ff16158080156200053b5750600054600160ff909116105b80620005575750303b15801562000557575060005460ff166001145b620005bc5760405162461bcd60e51b815260206004820152602e60248201527f496e697469616c697a61626c653a20636f6e747261637420697320616c72656160448201526d191e481a5b9a5d1a585b1a5e995960921b606482015260840162000311565b6000805460ff191660011790558015620005e0576000805461ff0019166101001790555b620005eb8762000b07565b6200063a8787604051620005ff9062000e7b565b6001600160a01b03928316815291166020820152604001604051809103906000f08015801562000633573d6000803e3d6000fd5b50620008de565b606680546001600160a01b038088166001600160a01b031992831617909255606780548784169083161790556068805486841690831617905560698054928516929091169190911790558015620006cb576000805461ff0019169055604051600181527f7f26b83ff96e1f2b6a682f133852f6798a09c465da95921460cefb38474024989060200160405180910390a15b50505050505050565b600080620006e1620008ab565b6040516312d9a6ad60e01b8152600481018390523360248201526001600160a01b0391909116906312d9a6ad9060440160006040518083038186803b1580156200072a57600080fd5b505afa1580156200073f573d6000803e3d6000fd5b5050505060006200074f620008ab565b9050600081606560009054906101000a90046001600160a01b0316838c8c8c8c8c8c606660009054906101000a90046001600160a01b0316606760009054906101000a90046001600160a01b0316606860009054906101000a90046001600160a01b0316606960009054906101000a90046001600160a01b0316604051602401620007e59b9a99989796959493929190620012dd565b60408051601f198184030181529181526020820180516001600160e01b0316630b254d4960e21b179052516200081b9062000e89565b6200082993929190620014a9565b604051809103906000f08015801562000846573d6000803e3d6000fd5b50905086866040516200085b929190620014d7565b6040519081900381206001600160a01b0383168252907fd1f6b966043e666e0529eff096e766b4bcb2d3f88af26c3ddbf6bebde7a342509060200160405180910390a29998505050505050505050565b60007f3ff07d6b238084e39fc5d050e304626ccf5b5ccb8f457170664beef2c5e4919a5b546001600160a01b0316919050565b606580546001600160a01b0319166001600160a01b0392909216919091179055565b60006000805160206200291b833981519152620008cf565b600062000924620008ab565b6040516312d9a6ad60e01b8152600481018390523360248201526001600160a01b0391909116906312d9a6ad9060440160006040518083038186803b1580156200096d57600080fd5b505afa15801562000982573d6000803e3d6000fd5b505050505050565b7f4910fdfa16fed3260ed0e7147f7cc6da11a60208b5b9406d12a635614ffd91435460ff1615620009c557620009c08362000b3c565b505050565b826001600160a01b03166352d1902d6040518163ffffffff1660e01b8152600401602060405180830381865afa92505050801562000a22575060408051601f3d908101601f1916820190925262000a1f91810190620014e7565b60015b62000a875760405162461bcd60e51b815260206004820152602e60248201527f45524331393637557067726164653a206e657720696d706c656d656e7461746960448201526d6f6e206973206e6f74205555505360901b606482015260840162000311565b6000805160206200291b833981519152811462000af95760405162461bcd60e51b815260206004820152602960248201527f45524331393637557067726164653a20756e737570706f727465642070726f786044820152681a58589b195555525160ba1b606482015260840162000311565b50620009c083838362000bde565b600054610100900460ff1662000b315760405162461bcd60e51b8152600401620003119062001501565b620003a08162000c0f565b6001600160a01b0381163b62000bab5760405162461bcd60e51b815260206004820152602d60248201527f455243313936373a206e657720696d706c656d656e746174696f6e206973206e60448201526c1bdd08184818dbdb9d1c9858dd609a1b606482015260840162000311565b806000805160206200291b8339815191525b80546001600160a01b0319166001600160a01b039290921691909117905550565b62000be98362000c44565b60008251118062000bf75750805b15620009c05762000c09838362000c86565b50505050565b600054610100900460ff1662000c395760405162461bcd60e51b8152600401620003119062001501565b620003a08162000d83565b62000c4f8162000b3c565b6040516001600160a01b038216907fbc7cd75a20ee27fd9adebab32041f755214dbc6bffa90cc0225b39da2e5c2d3b90600090a250565b60606001600160a01b0383163b62000cf05760405162461bcd60e51b815260206004820152602660248201527f416464726573733a2064656c65676174652063616c6c20746f206e6f6e2d636f6044820152651b9d1c9858dd60d21b606482015260840162000311565b600080846001600160a01b03168460405162000d0d91906200154c565b600060405180830381855af49150503d806000811462000d4a576040519150601f19603f3d011682016040523d82523d6000602084013e62000d4f565b606091505b509150915062000d7a82826040518060600160405280602781526020016200293b6027913962000e2a565b95945050505050565b6001600160a01b0381163b62000e025760405162461bcd60e51b815260206004820152603960248201527f416363657373526573747269637465643a204e65772061636365737320636f6e60448201527f74726f6c6c6572206973206e6f74206120636f6e747261637400000000000000606482015260840162000311565b807f3ff07d6b238084e39fc5d050e304626ccf5b5ccb8f457170664beef2c5e4919a62000bbd565b6060831562000e3b57508162000e47565b62000e47838362000e4e565b9392505050565b81511562000e5f5781518083602001fd5b8060405162461bcd60e51b81526004016200031191906200156a565b6104c1806200158083390190565b610eda8062001a4183390190565b6001600160a01b0381168114620003a057600080fd5b60006020828403121562000ec057600080fd5b813562000e478162000e97565b634e487b7160e01b600052604160045260246000fd5b6000806040838503121562000ef757600080fd5b823562000f048162000e97565b9150602083013567ffffffffffffffff8082111562000f2257600080fd5b818501915085601f83011262000f3757600080fd5b81358181111562000f4c5762000f4c62000ecd565b604051601f8201601f19908116603f0116810190838211818310171562000f775762000f7762000ecd565b8160405282815288602084870101111562000f9157600080fd5b8260208601602083013760006020848301015280955050505050509250929050565b60008060008060008060c0878903121562000fcd57600080fd5b863562000fda8162000e97565b9550602087013562000fec8162000e97565b9450604087013562000ffe8162000e97565b93506060870135620010108162000e97565b92506080870135620010228162000e97565b915060a0870135620010348162000e97565b809150509295509295509295565b60008083601f8401126200105557600080fd5b50813567ffffffffffffffff8111156200106e57600080fd5b6020830191508360208285010111156200108757600080fd5b9250929050565b60008060008060008060808789031215620010a857600080fd5b8635620010b58162000e97565b9550602087013567ffffffffffffffff80821115620010d357600080fd5b620010e18a838b0162001042565b90975095506040890135915080821115620010fb57600080fd5b620011098a838b0162001042565b909550935060608901359150808211156200112357600080fd5b50870160e0818a0312156200103457600080fd5b6020808252602c908201527f46756e6374696f6e206d7573742062652063616c6c6564207468726f7567682060408201526b19195b1959d85d1958d85b1b60a21b606082015260800190565b6020808252602c908201527f46756e6374696f6e206d7573742062652063616c6c6564207468726f7567682060408201526b6163746976652070726f787960a01b606082015260800190565b81835281816020850137506000828201602090810191909152601f909101601f19169091010190565b6000808335601e198436030181126200121057600080fd5b830160208101925035905067ffffffffffffffff8111156200123157600080fd5b8060051b36038213156200108757600080fd5b81835260006020808501808196508560051b810191508460005b87811015620012d05782840389528135601e198836030181126200128157600080fd5b8701858101903567ffffffffffffffff8111156200129e57600080fd5b803603821315620012ae57600080fd5b620012bb868284620011cf565b9a87019a95505050908401906001016200125e565b5091979650505050505050565b6001600160a01b038c811682528b166020820152610120604082018190526000906200130d8382018c8e620011cf565b9050828103606084015262001324818a8c620011cf565b905082810360808401526200133a8889620011f8565b60e083526200134e60e08401828462001244565b9150506200136060208a018a620011f8565b83830360208501526200137583828462001244565b92505050604089013560408301526200139260608a018a620011f8565b8383036060850152620013a783828462001244565b9250505060808901356080830152620013c460a08a018a620011f8565b83830360a08501528083526001600160fb1b03811115620013e457600080fd5b60051b8082602085013760c08b810135940193909352500160200190506200141760a08301876001600160a01b03169052565b6001600160a01b03851660c08301526001600160a01b03841660e08301526001600160a01b0383166101008301529c9b505050505050505050505050565b60005b838110156200147257818101518382015260200162001458565b50506000910152565b600081518084526200149581602086016020860162001455565b601f01601f19169290920160200192915050565b6001600160a01b0384811682528316602082015260606040820181905260009062000d7a908301846200147b565b8183823760009101908152919050565b600060208284031215620014fa57600080fd5b5051919050565b6020808252602b908201527f496e697469616c697a61626c653a20636f6e7472616374206973206e6f74206960408201526a6e697469616c697a696e6760a81b606082015260800190565b600082516200156081846020870162001455565b9190910192915050565b60208152600062000e4760208301846200147b56fe608060405234801561001057600080fd5b506040516104c13803806104c183398101604081905261002f91610203565b61003882610048565b6100418161012a565b505061023d565b61005b816101d960201b6101521760201c565b6100d25760405162461bcd60e51b815260206004820152603960248201527f416363657373526573747269637465643a204e65772061636365737320636f6e60448201527f74726f6c6c6572206973206e6f74206120636f6e74726163740000000000000060648201526084015b60405180910390fd5b806101097f3ff07d6b238084e39fc5d050e304626ccf5b5ccb8f457170664beef2c5e4919a60001b6101e860201b6101611760201c565b80546001600160a01b0319166001600160a01b039290921691909117905550565b61013d816101d960201b6101521760201c565b6101af5760405162461bcd60e51b815260206004820152603760248201527f546865615570677261646561626c65426561636f6e3a20696d706c656d656e7460448201527f6174696f6e206973206e6f74206120636f6e747261637400000000000000000060648201526084016100c9565b600080546001600160a01b03909216620100000262010000600160b01b0319909216919091179055565b6001600160a01b03163b151590565b90565b6001600160a01b038116811461020057600080fd5b50565b6000806040838503121561021657600080fd5b8251610221816101eb565b6020840151909250610232816101eb565b809150509250929050565b6102758061024c6000396000f3fe608060405234801561001057600080fd5b50600436106100365760003560e01c80633659cfe61461003b5780635c60da1b14610050575b600080fd5b61004e61004936600461020f565b61007e565b005b6000546201000090046001600160a01b03166040516001600160a01b03909116815260200160405180910390f35b60006100b17f3ff07d6b238084e39fc5d050e304626ccf5b5ccb8f457170664beef2c5e4919a546001600160a01b031690565b6040516312d9a6ad60e01b8152600481018390523360248201526001600160a01b0391909116906312d9a6ad9060440160006040518083038186803b1580156100f957600080fd5b505afa15801561010d573d6000803e3d6000fd5b5050505061011a82610164565b6040516001600160a01b038316907fbc7cd75a20ee27fd9adebab32041f755214dbc6bffa90cc0225b39da2e5c2d3b90600090a25050565b6001600160a01b03163b151590565b90565b6001600160a01b0381163b6101e55760405162461bcd60e51b815260206004820152603760248201527f546865615570677261646561626c65426561636f6e3a20696d706c656d656e7460448201527f6174696f6e206973206e6f74206120636f6e7472616374000000000000000000606482015260840160405180910390fd5b600080546001600160a01b03909216620100000262010000600160b01b0319909216919091179055565b60006020828403121561022157600080fd5b81356001600160a01b038116811461023857600080fd5b939250505056fea264697066735822122049622e6b0a1863e36a0c2f4200be62bc42d5476c223560708f4948523f97458b64736f6c63430008110033608060405260405162000eda38038062000eda833981016040819052620000269162000552565b818162000036828260006200004d565b506200004490508362000122565b505050620006aa565b62000058836200020b565b6040516001600160a01b038416907f1cf3b03a6cf19fa2baba4df148e9dcabedea7f8a5c07840e207e5c089be95d3e90600090a26000825111806200009a5750805b156200011d576200011b836001600160a01b0316635c60da1b6040518163ffffffff1660e01b8152600401602060405180830381865afa158015620000e3573d6000803e3d6000fd5b505050506040513d601f19601f8201168201806040525081019062000109919062000637565b836200039860201b6200015b1760201c565b505b505050565b6200013881620003c760201b620001871760201c565b620001b05760405162461bcd60e51b815260206004820152603960248201527f416363657373526573747269637465643a204e65772061636365737320636f6e60448201527f74726f6c6c6572206973206e6f74206120636f6e74726163740000000000000060648201526084015b60405180910390fd5b80620001ea7f3ff07d6b238084e39fc5d050e304626ccf5b5ccb8f457170664beef2c5e4919a60001b620003d660201b620001961760201c565b80546001600160a01b0319166001600160a01b039290921691909117905550565b6200022181620003c760201b620001871760201c565b6200027d5760405162461bcd60e51b815260206004820152602560248201527f455243313936373a206e657720626561636f6e206973206e6f74206120636f6e6044820152641d1c9858dd60da1b6064820152608401620001a7565b620002f7816001600160a01b0316635c60da1b6040518163ffffffff1660e01b8152600401602060405180830381865afa158015620002c0573d6000803e3d6000fd5b505050506040513d601f19601f82011682018060405250810190620002e6919062000637565b620003c760201b620001871760201c565b6200035e5760405162461bcd60e51b815260206004820152603060248201527f455243313936373a20626561636f6e20696d706c656d656e746174696f6e206960448201526f1cc81b9bdd08184818dbdb9d1c9858dd60821b6064820152608401620001a7565b80620001ea7fa3f0ad74e5423aebfd80d3ef4346578335a9a72aeaee59ff6cb3582b35133d5060001b620003d660201b620001961760201c565b6060620003c0838360405180606001604052806027815260200162000eb360279139620003d9565b9392505050565b6001600160a01b03163b151590565b90565b60606001600160a01b0384163b620004435760405162461bcd60e51b815260206004820152602660248201527f416464726573733a2064656c65676174652063616c6c20746f206e6f6e2d636f6044820152651b9d1c9858dd60d21b6064820152608401620001a7565b600080856001600160a01b03168560405162000460919062000657565b600060405180830381855af49150503d80600081146200049d576040519150601f19603f3d011682016040523d82523d6000602084013e620004a2565b606091505b509092509050620004b5828286620004bf565b9695505050505050565b60608315620004d0575081620003c0565b825115620004e15782518084602001fd5b8160405162461bcd60e51b8152600401620001a7919062000675565b6001600160a01b03811681146200051357600080fd5b50565b634e487b7160e01b600052604160045260246000fd5b60005b83811015620005495781810151838201526020016200052f565b50506000910152565b6000806000606084860312156200056857600080fd5b83516200057581620004fd565b60208501519093506200058881620004fd565b60408501519092506001600160401b0380821115620005a657600080fd5b818601915086601f830112620005bb57600080fd5b815181811115620005d057620005d062000516565b604051601f8201601f19908116603f01168101908382118183101715620005fb57620005fb62000516565b816040528281528960208487010111156200061557600080fd5b620006288360208301602088016200052c565b80955050505050509250925092565b6000602082840312156200064a57600080fd5b8151620003c081620004fd565b600082516200066b8184602087016200052c565b9190910192915050565b6020815260008251806020840152620006968160408501602087016200052c565b601f01601f19169190910160400192915050565b6107f980620006ba6000396000f3fe6080604052600436106100385760003560e01c80632d6b3a6b1461004f5780635aabcad514610080578063aaf10f42146100a057610047565b36610047576100456100b5565b005b6100456100b5565b34801561005b57600080fd5b506100646100c7565b6040516001600160a01b03909116815260200160405180910390f35b34801561008c57600080fd5b5061004561009b366004610638565b6100d6565b3480156100ac57600080fd5b50610064610151565b6100c56100c0610199565b610204565b565b60006100d161022d565b905090565b60006100e0610260565b6040516312d9a6ad60e01b8152600481018390523360248201526001600160a01b0391909116906312d9a6ad9060440160006040518083038186803b15801561012857600080fd5b505afa15801561013c573d6000803e3d6000fd5b5050505061014b848484610288565b50505050565b60006100d1610342565b6060610180838360405180606001604052806027815260200161079d6027913961036a565b9392505050565b6001600160a01b03163b151590565b90565b60006101a361022d565b6001600160a01b0316635c60da1b6040518163ffffffff1660e01b8152600401602060405180830381865afa1580156101e0573d6000803e3d6000fd5b505050506040513d601f19601f820116820180604052508101906100d1919061070c565b3660008037600080366000845af43d6000803e808015610223573d6000f35b3d6000fd5b505050565b60007fa3f0ad74e5423aebfd80d3ef4346578335a9a72aeaee59ff6cb3582b35133d505b546001600160a01b0316919050565b60007f3ff07d6b238084e39fc5d050e304626ccf5b5ccb8f457170664beef2c5e4919a610251565b6102918361044c565b6040516001600160a01b038416907f1cf3b03a6cf19fa2baba4df148e9dcabedea7f8a5c07840e207e5c089be95d3e90600090a26000825111806102d25750805b156102285761014b836001600160a01b0316635c60da1b6040518163ffffffff1660e01b8152600401602060405180830381865afa158015610318573d6000803e3d6000fd5b505050506040513d601f19601f8201168201806040525081019061033c919061070c565b8361015b565b60007f360894a13ba1a3210667c828492db98dca3e2076cc3735a920a3ca505d382bbc610251565b60606001600160a01b0384163b6103d75760405162461bcd60e51b815260206004820152602660248201527f416464726573733a2064656c65676174652063616c6c20746f206e6f6e2d636f6044820152651b9d1c9858dd60d21b60648201526084015b60405180910390fd5b600080856001600160a01b0316856040516103f2919061074d565b600060405180830381855af49150503d806000811461042d576040519150601f19603f3d011682016040523d82523d6000602084013e610432565b606091505b50915091506104428282866105bc565b9695505050505050565b6001600160a01b0381163b6104b15760405162461bcd60e51b815260206004820152602560248201527f455243313936373a206e657720626561636f6e206973206e6f74206120636f6e6044820152641d1c9858dd60da1b60648201526084016103ce565b610516816001600160a01b0316635c60da1b6040518163ffffffff1660e01b8152600401602060405180830381865afa1580156104f2573d6000803e3d6000fd5b505050506040513d601f19601f82011682018060405250810190610187919061070c565b61057b5760405162461bcd60e51b815260206004820152603060248201527f455243313936373a20626561636f6e20696d706c656d656e746174696f6e206960448201526f1cc81b9bdd08184818dbdb9d1c9858dd60821b60648201526084016103ce565b7fa3f0ad74e5423aebfd80d3ef4346578335a9a72aeaee59ff6cb3582b35133d5080546001600160a01b0319166001600160a01b0392909216919091179055565b606083156105cb575081610180565b8251156105db5782518084602001fd5b8160405162461bcd60e51b81526004016103ce9190610769565b6001600160a01b038116811461060a57600080fd5b50565b634e487b7160e01b600052604160045260246000fd5b8035801515811461063357600080fd5b919050565b60008060006060848603121561064d57600080fd5b8335610658816105f5565b9250602084013567ffffffffffffffff8082111561067557600080fd5b818601915086601f83011261068957600080fd5b81358181111561069b5761069b61060d565b604051601f8201601f19908116603f011681019083821181831017156106c3576106c361060d565b816040528281528960208487010111156106dc57600080fd5b82602086016020830137600060208483010152809650505050505061070360408501610623565b90509250925092565b60006020828403121561071e57600080fd5b8151610180816105f5565b60005b8381101561074457818101518382015260200161072c565b50506000910152565b6000825161075f818460208701610729565b9190910192915050565b6020815260008251806020840152610788816040850160208701610729565b601f01601f1916919091016040019291505056fe416464726573733a206c6f772d6c6576656c2064656c65676174652063616c6c206661696c6564a26469706673582212202f15e6383f21946fde31c48bf3d9d19444a0e1ec406870b32dca06fef90803ed64736f6c63430008110033416464726573733a206c6f772d6c6576656c2064656c65676174652063616c6c206661696c6564360894a13ba1a3210667c828492db98dca3e2076cc3735a920a3ca505d382bbc416464726573733a206c6f772d6c6576656c2064656c65676174652063616c6c206661696c6564a2646970667358221220f1a68a2046168ae2799a8f846b0d89e120c9331de19c33b3e7684f25d1a8fdb164736f6c63430008110033",
    "linkReferences": {},
    "deployedLinkReferences": {}
}