{
	"_format": "hh-sol-artifact-1",
	"contractName": "Registry",
	"sourceName": "contracts/Registry.sol",
	"abi": [
		{
			"inputs": [],
			"stateMutability": "nonpayable",
			"type": "constructor"
		},
		{
			"anonymous": false,
			"inputs": [
				{
					"indexed": false,
					"internalType": "address",
					"name": "previousAdmin",
					"type": "address"
				},
				{
					"indexed": false,
					"internalType": "address",
					"name": "newAdmin",
					"type": "address"
				}
			],
			"name": "AdminChanged",
			"type": "event"
		},
		{
			"anonymous": false,
			"inputs": [
				{
					"indexed": true,
					"internalType": "address",
					"name": "beacon",
					"type": "address"
				}
			],
			"name": "BeaconUpgraded",
			"type": "event"
		},
		{
			"anonymous": false,
			"inputs": [
				{
					"indexed": false,
					"internalType": "uint8",
					"name": "version",
					"type": "uint8"
				}
			],
			"name": "Initialized",
			"type": "event"
		},
		{
			"anonymous": false,
			"inputs": [
				{
					"indexed": true,
					"internalType": "address",
					"name": "from",
					"type": "address"
				},
				{
					"indexed": true,
					"internalType": "uint256",
					"name": "id",
					"type": "uint256"
				},
				{
					"indexed": false,
					"internalType": "uint256",
					"name": "amount",
					"type": "uint256"
				}
			],
			"name": "Retired",
			"type": "event"
		},
		{
			"anonymous": false,
			"inputs": [
				{
					"indexed": true,
					"internalType": "uint256",
					"name": "tokenId",
					"type": "uint256"
				},
				{
					"indexed": true,
					"internalType": "bytes",
					"name": "projectID",
					"type": "bytes"
				},
				{
					"indexed": true,
					"internalType": "bytes",
					"name": "vintage",
					"type": "bytes"
				},
				{
					"indexed": false,
					"internalType": "bytes",
					"name": "projectIDValue",
					"type": "bytes"
				},
				{
					"indexed": false,
					"internalType": "bytes",
					"name": "vintageValue",
					"type": "bytes"
				},
				{
					"indexed": false,
					"internalType": "address",
					"name": "to",
					"type": "address"
				},
				{
					"indexed": false,
					"internalType": "uint256",
					"name": "amount",
					"type": "uint256"
				}
			],
			"name": "Tokenized",
			"type": "event"
		},
		{
			"anonymous": false,
			"inputs": [
				{
					"indexed": true,
					"internalType": "uint256",
					"name": "requestId",
					"type": "uint256"
				},
				{
					"indexed": true,
					"internalType": "uint256",
					"name": "tokenId",
					"type": "uint256"
				},
				{
					"indexed": false,
					"internalType": "uint256",
					"name": "amount",
					"type": "uint256"
				},
				{
					"indexed": false,
					"internalType": "string",
					"name": "offchainAccount",
					"type": "string"
				}
			],
			"name": "UnwrapRequested",
			"type": "event"
		},
		{
			"anonymous": false,
			"inputs": [
				{
					"indexed": true,
					"internalType": "uint256",
					"name": "requestId",
					"type": "uint256"
				},
				{
					"indexed": false,
					"internalType": "enum Registry.Status",
					"name": "status",
					"type": "uint8"
				},
				{
					"indexed": false,
					"internalType": "uint256",
					"name": "id",
					"type": "uint256"
				},
				{
					"indexed": false,
					"internalType": "address",
					"name": "owner",
					"type": "address"
				},
				{
					"indexed": false,
					"internalType": "uint256",
					"name": "amount",
					"type": "uint256"
				}
			],
			"name": "UpdatedUnwrapRequest",
			"type": "event"
		},
		{
			"anonymous": false,
			"inputs": [
				{
					"indexed": true,
					"internalType": "address",
					"name": "implementation",
					"type": "address"
				}
			],
			"name": "Upgraded",
			"type": "event"
		},
		{
			"inputs": [],
			"name": "KEY_CHARACTERISTIC",
			"outputs": [
				{
					"internalType": "bytes32",
					"name": "",
					"type": "bytes32"
				}
			],
			"stateMutability": "view",
			"type": "function"
		},
		{
			"inputs": [
				{
					"internalType": "uint256",
					"name": "",
					"type": "uint256"
				},
				{
					"internalType": "bytes32",
					"name": "",
					"type": "bytes32"
				}
			],
			"name": "characteristics",
			"outputs": [
				{
					"internalType": "bytes",
					"name": "",
					"type": "bytes"
				}
			],
			"stateMutability": "view",
			"type": "function"
		},
		{
			"inputs": [
				{
					"internalType": "uint256",
					"name": "id",
					"type": "uint256"
				},
				{
					"internalType": "bytes32[]",
					"name": "keys",
					"type": "bytes32[]"
				}
			],
			"name": "getCharacteristics",
			"outputs": [
				{
					"internalType": "bytes[]",
					"name": "",
					"type": "bytes[]"
				}
			],
			"stateMutability": "view",
			"type": "function"
		},
		{
			"inputs": [
				{
					"internalType": "uint256",
					"name": "id",
					"type": "uint256"
				},
				{
					"internalType": "bytes32[]",
					"name": "keys",
					"type": "bytes32[]"
				}
			],
			"name": "getCharacteristicsBytes",
			"outputs": [
				{
					"internalType": "bytes",
					"name": "",
					"type": "bytes"
				}
			],
			"stateMutability": "view",
			"type": "function"
		},
		{
			"inputs": [
				{
					"internalType": "contract AccessController",
					"name": "accessController_",
					"type": "address"
				},
				{
					"internalType": "contract TheaERC1155",
					"name": "theaERC1155_",
					"type": "address"
				}
			],
			"name": "initialize",
			"outputs": [],
			"stateMutability": "nonpayable",
			"type": "function"
		},
		{
			"inputs": [
				{
					"internalType": "uint256",
					"name": "tokenId",
					"type": "uint256"
				}
			],
			"name": "isRegistered",
			"outputs": [
				{
					"internalType": "bool",
					"name": "",
					"type": "bool"
				}
			],
			"stateMutability": "view",
			"type": "function"
		},
		{
			"inputs": [
				{
					"internalType": "uint256",
					"name": "",
					"type": "uint256"
				}
			],
			"name": "isTokenizationIdUsed",
			"outputs": [
				{
					"internalType": "bool",
					"name": "",
					"type": "bool"
				}
			],
			"stateMutability": "view",
			"type": "function"
		},
		{
			"inputs": [
				{
					"internalType": "address",
					"name": "",
					"type": "address"
				},
				{
					"internalType": "address",
					"name": "",
					"type": "address"
				},
				{
					"internalType": "uint256[]",
					"name": "",
					"type": "uint256[]"
				},
				{
					"internalType": "uint256[]",
					"name": "",
					"type": "uint256[]"
				},
				{
					"internalType": "bytes",
					"name": "",
					"type": "bytes"
				}
			],
			"name": "onERC1155BatchReceived",
			"outputs": [
				{
					"internalType": "bytes4",
					"name": "",
					"type": "bytes4"
				}
			],
			"stateMutability": "nonpayable",
			"type": "function"
		},
		{
			"inputs": [
				{
					"internalType": "address",
					"name": "",
					"type": "address"
				},
				{
					"internalType": "address",
					"name": "",
					"type": "address"
				},
				{
					"internalType": "uint256",
					"name": "",
					"type": "uint256"
				},
				{
					"internalType": "uint256",
					"name": "",
					"type": "uint256"
				},
				{
					"internalType": "bytes",
					"name": "",
					"type": "bytes"
				}
			],
			"name": "onERC1155Received",
			"outputs": [
				{
					"internalType": "bytes4",
					"name": "",
					"type": "bytes4"
				}
			],
			"stateMutability": "nonpayable",
			"type": "function"
		},
		{
			"inputs": [],
			"name": "proxiableUUID",
			"outputs": [
				{
					"internalType": "bytes32",
					"name": "",
					"type": "bytes32"
				}
			],
			"stateMutability": "view",
			"type": "function"
		},
		{
			"inputs": [
				{
					"internalType": "bytes32[]",
					"name": "keys",
					"type": "bytes32[]"
				},
				{
					"internalType": "bytes[]",
					"name": "values",
					"type": "bytes[]"
				},
				{
					"internalType": "string",
					"name": "uri",
					"type": "string"
				},
				{
					"internalType": "uint256",
					"name": "tokenId",
					"type": "uint256"
				}
			],
			"name": "register",
			"outputs": [],
			"stateMutability": "nonpayable",
			"type": "function"
		},
		{
			"inputs": [
				{
					"internalType": "bytes32[]",
					"name": "keys",
					"type": "bytes32[]"
				},
				{
					"internalType": "bytes[]",
					"name": "values",
					"type": "bytes[]"
				},
				{
					"internalType": "string",
					"name": "uri",
					"type": "string"
				},
				{
					"internalType": "uint256",
					"name": "tokenId",
					"type": "uint256"
				},
				{
					"internalType": "address",
					"name": "to",
					"type": "address"
				},
				{
					"internalType": "uint256",
					"name": "amount",
					"type": "uint256"
				},
				{
					"internalType": "uint256",
					"name": "tokenizationId",
					"type": "uint256"
				}
			],
			"name": "registerAndTokenize",
			"outputs": [],
			"stateMutability": "nonpayable",
			"type": "function"
		},
		{
			"inputs": [
				{
					"internalType": "uint256",
					"name": "",
					"type": "uint256"
				}
			],
			"name": "requests",
			"outputs": [
				{
					"internalType": "enum Registry.Status",
					"name": "status",
					"type": "uint8"
				},
				{
					"internalType": "address",
					"name": "maker",
					"type": "address"
				},
				{
					"internalType": "uint256",
					"name": "tokenId",
					"type": "uint256"
				},
				{
					"internalType": "uint256",
					"name": "amount",
					"type": "uint256"
				}
			],
			"stateMutability": "view",
			"type": "function"
		},
		{
			"inputs": [
				{
					"internalType": "uint256",
					"name": "tokenId",
					"type": "uint256"
				},
				{
					"internalType": "uint256",
					"name": "amount",
					"type": "uint256"
				}
			],
			"name": "retire",
			"outputs": [],
			"stateMutability": "nonpayable",
			"type": "function"
		},
		{
			"inputs": [
				{
					"internalType": "bytes4",
					"name": "interfaceId",
					"type": "bytes4"
				}
			],
			"name": "supportsInterface",
			"outputs": [
				{
					"internalType": "bool",
					"name": "",
					"type": "bool"
				}
			],
			"stateMutability": "view",
			"type": "function"
		},
		{
			"inputs": [],
			"name": "theaERC1155",
			"outputs": [
				{
					"internalType": "contract TheaERC1155",
					"name": "",
					"type": "address"
				}
			],
			"stateMutability": "view",
			"type": "function"
		},
		{
			"inputs": [
				{
					"internalType": "address",
					"name": "to",
					"type": "address"
				},
				{
					"internalType": "uint256",
					"name": "id",
					"type": "uint256"
				},
				{
					"internalType": "uint256",
					"name": "amount",
					"type": "uint256"
				},
				{
					"internalType": "uint256",
					"name": "tokenizationId",
					"type": "uint256"
				}
			],
			"name": "tokenize",
			"outputs": [],
			"stateMutability": "nonpayable",
			"type": "function"
		},
		{
			"inputs": [
				{
					"internalType": "uint256",
					"name": "id",
					"type": "uint256"
				},
				{
					"internalType": "uint256",
					"name": "amount",
					"type": "uint256"
				},
				{
					"internalType": "string",
					"name": "offchainAccount",
					"type": "string"
				}
			],
			"name": "unwrap",
			"outputs": [
				{
					"internalType": "uint256",
					"name": "requestId",
					"type": "uint256"
				}
			],
			"stateMutability": "nonpayable",
			"type": "function"
		},
		{
			"inputs": [],
			"name": "unwrapRequestCounter",
			"outputs": [
				{
					"internalType": "uint256",
					"name": "",
					"type": "uint256"
				}
			],
			"stateMutability": "view",
			"type": "function"
		},
		{
			"inputs": [
				{
					"internalType": "uint256",
					"name": "requestId",
					"type": "uint256"
				},
				{
					"internalType": "bool",
					"name": "accepted",
					"type": "bool"
				}
			],
			"name": "updateUnwrapRequest",
			"outputs": [],
			"stateMutability": "nonpayable",
			"type": "function"
		},
		{
			"inputs": [
				{
					"internalType": "address",
					"name": "newImplementation",
					"type": "address"
				}
			],
			"name": "upgradeTo",
			"outputs": [],
			"stateMutability": "nonpayable",
			"type": "function"
		},
		{
			"inputs": [
				{
					"internalType": "address",
					"name": "newImplementation",
					"type": "address"
				},
				{
					"internalType": "bytes",
					"name": "data",
					"type": "bytes"
				}
			],
			"name": "upgradeToAndCall",
			"outputs": [],
			"stateMutability": "payable",
			"type": "function"
		}
	],
	"bytecode": "0x60a0604052306080523480156200001557600080fd5b506200002062000026565b620000e8565b600054610100900460ff1615620000935760405162461bcd60e51b815260206004820152602760248201527f496e697469616c697a61626c653a20636f6e747261637420697320696e697469604482015266616c697a696e6760c81b606482015260840160405180910390fd5b60005460ff9081161015620000e6576000805460ff191660ff9081179091556040519081527f7f26b83ff96e1f2b6a682f133852f6798a09c465da95921460cefb38474024989060200160405180910390a15b565b60805161289862000120600039600081816105e301528181610623015281816109380152818161097801526109f401526128986000f3fe6080604052600436106101355760003560e01c8063851d87b0116100ab578063c9ae3a191161006f578063c9ae3a19146103d5578063dfb75180146103eb578063e171c3f01461040b578063eee7b15f14610438578063f23a6e6114610458578063f6cb8a3a1461048457600080fd5b8063851d87b01461030f5780639be124921461032f5780639fb4840b1461034f578063a645859d14610370578063bc197c811461039057600080fd5b806345520d8c116100fd57806345520d8c1461021a578063485cc955146102485780634f1ef2861461026857806352d1902d1461027b578063579a69881461029057806381d12c58146102b057600080fd5b806301ffc9a71461013a5780630b18ade01461016f57806311390066146101a7578063293a7f2e146101d85780633659cfe6146101fa575b600080fd5b34801561014657600080fd5b5061015a610155366004611b60565b6104b1565b60405190151581526020015b60405180910390f35b34801561017b57600080fd5b5060fc5461018f906001600160a01b031681565b6040516001600160a01b039091168152602001610166565b3480156101b357600080fd5b5061015a6101c2366004611b8a565b60ff602081905260009182526040909120541681565b3480156101e457600080fd5b506101f86101f3366004611ba3565b6104e8565b005b34801561020657600080fd5b506101f8610215366004611bda565b6105d9565b34801561022657600080fd5b5061023a610235366004611bf7565b6106a1565b604051908152602001610166565b34801561025457600080fd5b506101f8610263366004611c76565b6107f7565b6101f8610276366004611d64565b61092e565b34801561028757600080fd5b5061023a6109e7565b34801561029c57600080fd5b5061015a6102ab366004611b8a565b610a9a565b3480156102bc57600080fd5b506102ff6102cb366004611b8a565b60fe6020526000908152604090208054600182015460029092015460ff8216926101009092046001600160a01b0316919084565b6040516101669493929190611deb565b34801561031b57600080fd5b506101f861032a366004611e1d565b610aa5565b34801561033b57600080fd5b506101f861034a366004611f65565b610b2f565b34801561035b57600080fd5b5061023a691c1c9bda9958dd17da5960b21b81565b34801561037c57600080fd5b506101f861038b36600461201d565b610bc8565b34801561039c57600080fd5b506103bc6103ab366004612047565b63bc197c8160e01b95945050505050565b6040516001600160e01b03199091168152602001610166565b3480156103e157600080fd5b5061023a60fb5481565b3480156103f757600080fd5b506101f86104063660046120f4565b610e53565b34801561041757600080fd5b5061042b610426366004611ba3565b610ed6565b60405161016691906121d3565b34801561044457600080fd5b5061042b6104533660046121e6565b610f7b565b34801561046457600080fd5b506103bc610473366004612264565b63f23a6e6160e01b95945050505050565b34801561049057600080fd5b506104a461049f3660046121e6565b611007565b60405161016691906122cc565b60006001600160e01b03198216630271189760e51b14806104e257506301ffc9a760e01b6001600160e01b03198316145b92915050565b6104f182611155565b6105335760405162461bcd60e51b815260206004820152600e60248201526d139bdd081c9959da5cdd195c995960921b60448201526064015b60405180910390fd5b60fc54604051637a94c56560e11b815233600482015260248101849052604481018390526001600160a01b039091169063f5298aca90606401600060405180830381600087803b15801561058657600080fd5b505af115801561059a573d6000803e3d6000fd5b50506040518381528492503391507fb3775f672e1adf43bf7834b692675bfee4db72f83e42da8cff694ca295a89eca9060200160405180910390a35050565b6001600160a01b037f00000000000000000000000000000000000000000000000000000000000000001630036106215760405162461bcd60e51b815260040161052a9061232e565b7f00000000000000000000000000000000000000000000000000000000000000006001600160a01b0316610653611193565b6001600160a01b0316146106795760405162461bcd60e51b815260040161052a9061237a565b610682816111b4565b6040805160008082526020820190925261069e91839190611222565b50565b60006106af6103e8856123c6565b156106fc5760405162461bcd60e51b815260206004820152601e60248201527f54686520616d6f756e742073686f756c642062652077686f6c6520544f4e0000604482015260640161052a565b60fc54604051637921219560e11b81526001600160a01b039091169063f242432a9061073290339030908a908a906004016123e8565b600060405180830381600087803b15801561074c57600080fd5b505af1158015610760573d6000803e3d6000fd5b5050505060fb5460016107739190612436565b600081815260fe60205260409081902060018101889055600281018790558054610100600160a81b031916336101000217815560fb839055905191925090869083907f123058a603e310439e60c4a3b16905105a0605670c0cb813b579f7a316301955906107e690899089908990612449565b60405180910390a350949350505050565b600054610100900460ff16158080156108175750600054600160ff909116105b806108315750303b158015610831575060005460ff166001145b6108945760405162461bcd60e51b815260206004820152602e60248201527f496e697469616c697a61626c653a20636f6e747261637420697320616c72656160448201526d191e481a5b9a5d1a585b1a5e995960921b606482015260840161052a565b6000805460ff1916600117905580156108b7576000805461ff0019166101001790555b6108c08361138d565b6108c86113bd565b60fc80546001600160a01b0319166001600160a01b0384161790558015610929576000805461ff0019169055604051600181527f7f26b83ff96e1f2b6a682f133852f6798a09c465da95921460cefb38474024989060200160405180910390a15b505050565b6001600160a01b037f00000000000000000000000000000000000000000000000000000000000000001630036109765760405162461bcd60e51b815260040161052a9061232e565b7f00000000000000000000000000000000000000000000000000000000000000006001600160a01b03166109a8611193565b6001600160a01b0316146109ce5760405162461bcd60e51b815260040161052a9061237a565b6109d7826111b4565b6109e382826001611222565b5050565b6000306001600160a01b037f00000000000000000000000000000000000000000000000000000000000000001614610a875760405162461bcd60e51b815260206004820152603860248201527f555550535570677261646561626c653a206d757374206e6f742062652063616c60448201527f6c6564207468726f7567682064656c656761746563616c6c0000000000000000606482015260840161052a565b5060008051602061281c83398151915290565b60006104e282611155565b6000805160206127fc833981519152610abc6113e6565b6040516312d9a6ad60e01b8152600481018390523360248201526001600160a01b0391909116906312d9a6ad9060440160006040518083038186803b158015610b0457600080fd5b505afa158015610b18573d6000803e3d6000fd5b50505050610b288585858561140e565b5050505050565b6000805160206127fc833981519152610b466113e6565b6040516312d9a6ad60e01b8152600481018390523360248201526001600160a01b0391909116906312d9a6ad9060440160006040518083038186803b158015610b8e57600080fd5b505afa158015610ba2573d6000803e3d6000fd5b50505050610bb28888888861163e565b610bbe8486858561140e565b5050505050505050565b6000805160206127fc833981519152610bdf6113e6565b6040516312d9a6ad60e01b8152600481018390523360248201526001600160a01b0391909116906312d9a6ad9060440160006040518083038186803b158015610c2757600080fd5b505afa158015610c3b573d6000803e3d6000fd5b5050505060fb54831115610c7e5760405162461bcd60e51b815260206004820152600a602482015269125b9d985b1a59081a5960b21b604482015260640161052a565b600083815260fe6020526040812090815460ff166002811115610ca357610ca3611db3565b14610ce45760405162461bcd60e51b8152602060048201526011602482015270105b1c9958591e481c195c999bdc9b5959607a1b604482015260640161052a565b8215610d6f5760fc5460018201546002830154604051637a94c56560e11b8152306004820152602481019290925260448201526001600160a01b039091169063f5298aca90606401600060405180830381600087803b158015610d4657600080fd5b505af1158015610d5a573d6000803e3d6000fd5b5050825460ff1916600117835550610df39050565b60fc54815460018301546002840154604051637921219560e11b81526001600160a01b039485169463f242432a94610db5943094610100909204909216926004016123e8565b600060405180830381600087803b158015610dcf57600080fd5b505af1158015610de3573d6000803e3d6000fd5b5050825460ff1916600217835550505b80546001820154600283015460405187937fccc4d5135a7a4de978520d6b9c4c550ff54ba6491cc00479588173fb14762c0f93610e459360ff831693919261010090046001600160a01b03169161247f565b60405180910390a250505050565b6000805160206127fc833981519152610e6a6113e6565b6040516312d9a6ad60e01b8152600481018390523360248201526001600160a01b0391909116906312d9a6ad9060440160006040518083038186803b158015610eb257600080fd5b505afa158015610ec6573d6000803e3d6000fd5b50505050610b288585858561163e565b60fd60209081526000928352604080842090915290825290208054610efa906124b1565b80601f0160208091040260200160405190810160405280929190818152602001828054610f26906124b1565b8015610f735780601f10610f4857610100808354040283529160200191610f73565b820191906000526020600020905b815481529060010190602001808311610f5657829003601f168201915b505050505081565b600083815260fd60205260408120606091839183915b83811015610ff95782826000898985818110610faf57610faf6124eb565b905060200201358152602001908152602001600020604051602001610fd5929190612574565b60405160208183030381529060405292508080610ff190612592565b915050610f91565b5090925050505b9392505050565b6060816000816001600160401b0381111561102457611024611caf565b60405190808252806020026020018201604052801561105757816020015b60608152602001906001900390816110425790505b50600087815260fd602052604081209192505b83811015610ff957816000888884818110611087576110876124eb565b90506020020135815260200190815260200160002080546110a7906124b1565b80601f01602080910402602001604051908101604052809291908181526020018280546110d3906124b1565b80156111205780601f106110f557610100808354040283529160200191611120565b820191906000526020600020905b81548152906001019060200180831161110357829003601f168201915b5050505050838281518110611137576111376124eb565b6020026020010181905250808061114d90612592565b91505061106a565b600081815260fd60209081526040808320691c1c9bda9958dd17da5960b21b845290915281208054829190611189906124b1565b9050119050919050565b600060008051602061281c8339815191525b546001600160a01b0316919050565b60006111be6113e6565b6040516312d9a6ad60e01b8152600481018390523360248201526001600160a01b0391909116906312d9a6ad9060440160006040518083038186803b15801561120657600080fd5b505afa15801561121a573d6000803e3d6000fd5b505050505050565b7f4910fdfa16fed3260ed0e7147f7cc6da11a60208b5b9406d12a635614ffd91435460ff16156112555761092983611850565b826001600160a01b03166352d1902d6040518163ffffffff1660e01b8152600401602060405180830381865afa9250505080156112af575060408051601f3d908101601f191682019092526112ac918101906125ab565b60015b6113125760405162461bcd60e51b815260206004820152602e60248201527f45524331393637557067726164653a206e657720696d706c656d656e7461746960448201526d6f6e206973206e6f74205555505360901b606482015260840161052a565b60008051602061281c83398151915281146113815760405162461bcd60e51b815260206004820152602960248201527f45524331393637557067726164653a20756e737570706f727465642070726f786044820152681a58589b195555525160ba1b606482015260840161052a565b506109298383836118ef565b600054610100900460ff166113b45760405162461bcd60e51b815260040161052a906125c4565b61069e8161191a565b600054610100900460ff166113e45760405162461bcd60e51b815260040161052a906125c4565b565b60007f3ff07d6b238084e39fc5d050e304626ccf5b5ccb8f457170664beef2c5e4919a6111a5565b600081815260ff6020819052604090912054161561147a5760405162461bcd60e51b815260206004820152602360248201527f54686520746f6b656e697a6174696f6e496420697320616c72656164792065786044820152621a5cdd60ea1b606482015260840161052a565b61148383611155565b6114c05760405162461bcd60e51b815260206004820152600e60248201526d139bdd081c9959da5cdd195c995960921b604482015260640161052a565b600081815260ff6020526040808220805460ff1916600117905560fc54905163731133e960e01b81526001600160a01b038781166004830152602482018790526044820186905260806064830152608482019390935291169063731133e99060a401600060405180830381600087803b15801561153c57600080fd5b505af1158015611550573d6000803e3d6000fd5b505050600084815260fd602090815260408083206676696e7461676560c81b8452909152908190209051611584925061260f565b60408051918290038220600086815260fd6020908152838220691c1c9bda9958dd17da5960b21b835290529190912090916115bf919061260f565b60408051918290038220600087815260fd6020908152838220691c1c9bda9958dd17da5960b21b835290528281206676696e7461676560c81b8252929020909287927fc858d0993c3e73549c2e4b6d3a6e584d4f1eb55aff0364ce97062be5e430f20a92611630928b908a90612698565b60405180910390a450505050565b82518451146116995760405162461bcd60e51b815260206004820152602160248201527f52656769737472793a204d757374206265207468652073616d65206c656e67746044820152600d60fb1b606482015260840161052a565b6116a281611155565b156116e45760405162461bcd60e51b8152602060048201526012602482015271105b1c9958591e481c9959da5cdd195c995960721b604482015260640161052a565b6000805b855181101561179957848181518110611703576117036124eb565b602002602001015160fd60008581526020019081526020016000206000888481518110611732576117326124eb565b6020026020010151815260200190815260200160002090816117549190612720565b50691c1c9bda9958dd17da5960b21b868281518110611775576117756124eb565b60200260200101510361178757600191505b8061179181612592565b9150506116e8565b50806117e75760405162461bcd60e51b815260206004820152601a60248201527f4b6579206368617261637465726973746963206d697373696e67000000000000604482015260640161052a565b60fc546040516302fe530560e01b81526001600160a01b03909116906302fe5305906118179086906004016121d3565b600060405180830381600087803b15801561183157600080fd5b505af1158015611845573d6000803e3d6000fd5b505050505050505050565b6001600160a01b0381163b6118bd5760405162461bcd60e51b815260206004820152602d60248201527f455243313936373a206e657720696d706c656d656e746174696f6e206973206e60448201526c1bdd08184818dbdb9d1c9858dd609a1b606482015260840161052a565b8060008051602061281c8339815191525b80546001600160a01b0319166001600160a01b039290921691909117905550565b6118f88361194a565b6000825111806119055750805b1561092957611914838361198a565b50505050565b600054610100900460ff166119415760405162461bcd60e51b815260040161052a906125c4565b61069e81611a7e565b61195381611850565b6040516001600160a01b038216907fbc7cd75a20ee27fd9adebab32041f755214dbc6bffa90cc0225b39da2e5c2d3b90600090a250565b60606001600160a01b0383163b6119f25760405162461bcd60e51b815260206004820152602660248201527f416464726573733a2064656c65676174652063616c6c20746f206e6f6e2d636f6044820152651b9d1c9858dd60d21b606482015260840161052a565b600080846001600160a01b031684604051611a0d91906127df565b600060405180830381855af49150503d8060008114611a48576040519150601f19603f3d011682016040523d82523d6000602084013e611a4d565b606091505b5091509150611a75828260405180606001604052806027815260200161283c60279139611b22565b95945050505050565b6001600160a01b0381163b611afb5760405162461bcd60e51b815260206004820152603960248201527f416363657373526573747269637465643a204e65772061636365737320636f6e60448201527f74726f6c6c6572206973206e6f74206120636f6e747261637400000000000000606482015260840161052a565b807f3ff07d6b238084e39fc5d050e304626ccf5b5ccb8f457170664beef2c5e4919a6118ce565b60608315611b31575081611000565b6110008383815115611b465781518083602001fd5b8060405162461bcd60e51b815260040161052a91906121d3565b600060208284031215611b7257600080fd5b81356001600160e01b03198116811461100057600080fd5b600060208284031215611b9c57600080fd5b5035919050565b60008060408385031215611bb657600080fd5b50508035926020909101359150565b6001600160a01b038116811461069e57600080fd5b600060208284031215611bec57600080fd5b813561100081611bc5565b60008060008060608587031215611c0d57600080fd5b843593506020850135925060408501356001600160401b0380821115611c3257600080fd5b818701915087601f830112611c4657600080fd5b813581811115611c5557600080fd5b886020828501011115611c6757600080fd5b95989497505060200194505050565b60008060408385031215611c8957600080fd5b8235611c9481611bc5565b91506020830135611ca481611bc5565b809150509250929050565b634e487b7160e01b600052604160045260246000fd5b604051601f8201601f191681016001600160401b0381118282101715611ced57611ced611caf565b604052919050565b600082601f830112611d0657600080fd5b81356001600160401b03811115611d1f57611d1f611caf565b611d32601f8201601f1916602001611cc5565b818152846020838601011115611d4757600080fd5b816020850160208301376000918101602001919091529392505050565b60008060408385031215611d7757600080fd5b8235611d8281611bc5565b915060208301356001600160401b03811115611d9d57600080fd5b611da985828601611cf5565b9150509250929050565b634e487b7160e01b600052602160045260246000fd5b60038110611de757634e487b7160e01b600052602160045260246000fd5b9052565b60808101611df98287611dc9565b6001600160a01b039490941660208201526040810192909252606090910152919050565b60008060008060808587031215611e3357600080fd5b8435611e3e81611bc5565b966020860135965060408601359560600135945092505050565b60006001600160401b03821115611e7157611e71611caf565b5060051b60200190565b600082601f830112611e8c57600080fd5b81356020611ea1611e9c83611e58565b611cc5565b82815260059290921b84018101918181019086841115611ec057600080fd5b8286015b84811015611edb5780358352918301918301611ec4565b509695505050505050565b600082601f830112611ef757600080fd5b81356020611f07611e9c83611e58565b82815260059290921b84018101918181019086841115611f2657600080fd5b8286015b84811015611edb5780356001600160401b03811115611f495760008081fd5b611f578986838b0101611cf5565b845250918301918301611f2a565b600080600080600080600060e0888a031215611f8057600080fd5b87356001600160401b0380821115611f9757600080fd5b611fa38b838c01611e7b565b985060208a0135915080821115611fb957600080fd5b611fc58b838c01611ee6565b975060408a0135915080821115611fdb57600080fd5b50611fe88a828b01611cf5565b95505060608801359350608088013561200081611bc5565b9699959850939692959460a0840135945060c09093013592915050565b6000806040838503121561203057600080fd5b8235915060208301358015158114611ca457600080fd5b600080600080600060a0868803121561205f57600080fd5b853561206a81611bc5565b9450602086013561207a81611bc5565b935060408601356001600160401b038082111561209657600080fd5b6120a289838a01611e7b565b945060608801359150808211156120b857600080fd5b6120c489838a01611e7b565b935060808801359150808211156120da57600080fd5b506120e788828901611cf5565b9150509295509295909350565b6000806000806080858703121561210a57600080fd5b84356001600160401b038082111561212157600080fd5b61212d88838901611e7b565b9550602087013591508082111561214357600080fd5b61214f88838901611ee6565b9450604087013591508082111561216557600080fd5b5061217287828801611cf5565b949793965093946060013593505050565b60005b8381101561219e578181015183820152602001612186565b50506000910152565b600081518084526121bf816020860160208601612183565b601f01601f19169290920160200192915050565b60208152600061100060208301846121a7565b6000806000604084860312156121fb57600080fd5b8335925060208401356001600160401b038082111561221957600080fd5b818601915086601f83011261222d57600080fd5b81358181111561223c57600080fd5b8760208260051b850101111561225157600080fd5b6020830194508093505050509250925092565b600080600080600060a0868803121561227c57600080fd5b853561228781611bc5565b9450602086013561229781611bc5565b9350604086013592506060860135915060808601356001600160401b038111156122c057600080fd5b6120e788828901611cf5565b6000602080830181845280855180835260408601915060408160051b870101925083870160005b8281101561232157603f1988860301845261230f8583516121a7565b945092850192908501906001016122f3565b5092979650505050505050565b6020808252602c908201527f46756e6374696f6e206d7573742062652063616c6c6564207468726f7567682060408201526b19195b1959d85d1958d85b1b60a21b606082015260800190565b6020808252602c908201527f46756e6374696f6e206d7573742062652063616c6c6564207468726f7567682060408201526b6163746976652070726f787960a01b606082015260800190565b6000826123e357634e487b7160e01b600052601260045260246000fd5b500690565b6001600160a01b0394851681529290931660208301526040820152606081019190915260a06080820181905260009082015260c00190565b634e487b7160e01b600052601160045260246000fd5b808201808211156104e2576104e2612420565b83815260406020820152816040820152818360608301376000818301606090810191909152601f909201601f1916010192915050565b6080810161248d8287611dc9565b60208201949094526001600160a01b03929092166040830152606090910152919050565b600181811c908216806124c557607f821691505b6020821081036124e557634e487b7160e01b600052602260045260246000fd5b50919050565b634e487b7160e01b600052603260045260246000fd5b6000815461250e816124b1565b60018281168015612526576001811461253b5761256a565b60ff198416875282151583028701945061256a565b8560005260208060002060005b858110156125615781548a820152908401908201612548565b50505082870194505b5050505092915050565b60008351612586818460208801612183565b611a7581840185612501565b6000600182016125a4576125a4612420565b5060010190565b6000602082840312156125bd57600080fd5b5051919050565b6020808252602b908201527f496e697469616c697a61626c653a20636f6e7472616374206973206e6f74206960408201526a6e697469616c697a696e6760a81b606082015260800190565b60006110008284612501565b60008154612628816124b1565b808552602060018381168015612645576001811461265f5761268d565b60ff1985168884015283151560051b88018301955061268d565b866000528260002060005b858110156126855781548a820186015290830190840161266a565b890184019650505b505050505092915050565b6080815260006126ab608083018761261b565b82810360208401526126bd818761261b565b6001600160a01b0395909516604084015250506060015292915050565b601f82111561092957600081815260208120601f850160051c810160208610156127015750805b601f850160051c820191505b8181101561121a5782815560010161270d565b81516001600160401b0381111561273957612739611caf565b61274d8161274784546124b1565b846126da565b602080601f831160018114612782576000841561276a5750858301515b600019600386901b1c1916600185901b17855561121a565b600085815260208120601f198616915b828110156127b157888601518255948401946001909101908401612792565b50858210156127cf5787850151600019600388901b60f8161c191681555b5050505050600190811b01905550565b600082516127f1818460208701612183565b919091019291505056fe523a704056dcd17bcf83bed8b68c59416dac1119be77755efe3bde0a64e46e0c360894a13ba1a3210667c828492db98dca3e2076cc3735a920a3ca505d382bbc416464726573733a206c6f772d6c6576656c2064656c65676174652063616c6c206661696c6564a264697066735822122008691e6195ef0fd511b141f720492a21de536bb6015e98e0780cbd67f1be024664736f6c63430008110033",
	"linkReferences": {},
	"deployedLinkReferences": {}
}