{
  "_format": "hh-sol-artifact-1",
  "contractName": "TheaERC20",
  "sourceName": "contracts/TheaERC20.sol",
  "abi": [
    {
      "inputs": [],
      "stateMutability": "nonpayable",
      "type": "constructor"
    },
    {
      "anonymous": false,
      "inputs": [
        {
          "indexed": false,
          "internalType": "address",
          "name": "previousAdmin",
          "type": "address"
        },
        {
          "indexed": false,
          "internalType": "address",
          "name": "newAdmin",
          "type": "address"
        }
      ],
      "name": "AdminChanged",
      "type": "event"
    },
    {
      "anonymous": false,
      "inputs": [
        {
          "indexed": true,
          "internalType": "address",
          "name": "owner",
          "type": "address"
        },
        {
          "indexed": true,
          "internalType": "address",
          "name": "spender",
          "type": "address"
        },
        {
          "indexed": false,
          "internalType": "uint256",
          "name": "value",
          "type": "uint256"
        }
      ],
      "name": "Approval",
      "type": "event"
    },
    {
      "anonymous": false,
      "inputs": [
        {
          "indexed": true,
          "internalType": "address",
          "name": "beacon",
          "type": "address"
        }
      ],
      "name": "BeaconUpgraded",
      "type": "event"
    },
    {
      "anonymous": false,
      "inputs": [
        {
          "indexed": false,
          "internalType": "uint8",
          "name": "version",
          "type": "uint8"
        }
      ],
      "name": "Initialized",
      "type": "event"
    },
    {
      "anonymous": false,
      "inputs": [
        {
          "indexed": true,
          "internalType": "address",
          "name": "from",
          "type": "address"
        },
        {
          "indexed": true,
          "internalType": "address",
          "name": "to",
          "type": "address"
        },
        {
          "indexed": false,
          "internalType": "uint256",
          "name": "value",
          "type": "uint256"
        }
      ],
      "name": "Transfer",
      "type": "event"
    },
    {
      "anonymous": false,
      "inputs": [
        {
          "indexed": true,
          "internalType": "address",
          "name": "implementation",
          "type": "address"
        }
      ],
      "name": "Upgraded",
      "type": "event"
    },
    {
      "inputs": [
        {
          "internalType": "address",
          "name": "owner",
          "type": "address"
        },
        {
          "internalType": "address",
          "name": "spender",
          "type": "address"
        }
      ],
      "name": "allowance",
      "outputs": [
        {
          "internalType": "uint256",
          "name": "",
          "type": "uint256"
        }
      ],
      "stateMutability": "view",
      "type": "function"
    },
    {
      "inputs": [
        {
          "internalType": "address",
          "name": "spender",
          "type": "address"
        },
        {
          "internalType": "uint256",
          "name": "amount",
          "type": "uint256"
        }
      ],
      "name": "approve",
      "outputs": [
        {
          "internalType": "bool",
          "name": "",
          "type": "bool"
        }
      ],
      "stateMutability": "nonpayable",
      "type": "function"
    },
    {
      "inputs": [
        {
          "internalType": "address",
          "name": "account",
          "type": "address"
        }
      ],
      "name": "balanceOf",
      "outputs": [
        {
          "internalType": "uint256",
          "name": "",
          "type": "uint256"
        }
      ],
      "stateMutability": "view",
      "type": "function"
    },
    {
      "inputs": [
        {
          "internalType": "address",
          "name": "account",
          "type": "address"
        },
        {
          "internalType": "uint256",
          "name": "amount",
          "type": "uint256"
        }
      ],
      "name": "burn",
      "outputs": [],
      "stateMutability": "nonpayable",
      "type": "function"
    },
    {
      "inputs": [],
      "name": "decimals",
      "outputs": [
        {
          "internalType": "uint8",
          "name": "",
          "type": "uint8"
        }
      ],
      "stateMutability": "view",
      "type": "function"
    },
    {
      "inputs": [
        {
          "internalType": "address",
          "name": "spender",
          "type": "address"
        },
        {
          "internalType": "uint256",
          "name": "subtractedValue",
          "type": "uint256"
        }
      ],
      "name": "decreaseAllowance",
      "outputs": [
        {
          "internalType": "bool",
          "name": "",
          "type": "bool"
        }
      ],
      "stateMutability": "nonpayable",
      "type": "function"
    },
    {
      "inputs": [
        {
          "internalType": "address",
          "name": "spender",
          "type": "address"
        },
        {
          "internalType": "uint256",
          "name": "addedValue",
          "type": "uint256"
        }
      ],
      "name": "increaseAllowance",
      "outputs": [
        {
          "internalType": "bool",
          "name": "",
          "type": "bool"
        }
      ],
      "stateMutability": "nonpayable",
      "type": "function"
    },
    {
      "inputs": [
        {
          "internalType": "contract AccessController",
          "name": "accessController_",
          "type": "address"
        },
        {
          "internalType": "string",
          "name": "name_",
          "type": "string"
        },
        {
          "internalType": "string",
          "name": "symbol_",
          "type": "string"
        }
      ],
      "name": "initialize",
      "outputs": [],
      "stateMutability": "nonpayable",
      "type": "function"
    },
    {
      "inputs": [
        {
          "internalType": "address",
          "name": "account",
          "type": "address"
        },
        {
          "internalType": "uint256",
          "name": "amount",
          "type": "uint256"
        }
      ],
      "name": "mint",
      "outputs": [],
      "stateMutability": "nonpayable",
      "type": "function"
    },
    {
      "inputs": [],
      "name": "name",
      "outputs": [
        {
          "internalType": "string",
          "name": "",
          "type": "string"
        }
      ],
      "stateMutability": "view",
      "type": "function"
    },
    {
      "inputs": [],
      "name": "proxiableUUID",
      "outputs": [
        {
          "internalType": "bytes32",
          "name": "",
          "type": "bytes32"
        }
      ],
      "stateMutability": "view",
      "type": "function"
    },
    {
      "inputs": [],
      "name": "symbol",
      "outputs": [
        {
          "internalType": "string",
          "name": "",
          "type": "string"
        }
      ],
      "stateMutability": "view",
      "type": "function"
    },
    {
      "inputs": [],
      "name": "totalSupply",
      "outputs": [
        {
          "internalType": "uint256",
          "name": "",
          "type": "uint256"
        }
      ],
      "stateMutability": "view",
      "type": "function"
    },
    {
      "inputs": [
        {
          "internalType": "address",
          "name": "to",
          "type": "address"
        },
        {
          "internalType": "uint256",
          "name": "amount",
          "type": "uint256"
        }
      ],
      "name": "transfer",
      "outputs": [
        {
          "internalType": "bool",
          "name": "",
          "type": "bool"
        }
      ],
      "stateMutability": "nonpayable",
      "type": "function"
    },
    {
      "inputs": [
        {
          "internalType": "address",
          "name": "from",
          "type": "address"
        },
        {
          "internalType": "address",
          "name": "to",
          "type": "address"
        },
        {
          "internalType": "uint256",
          "name": "amount",
          "type": "uint256"
        }
      ],
      "name": "transferFrom",
      "outputs": [
        {
          "internalType": "bool",
          "name": "",
          "type": "bool"
        }
      ],
      "stateMutability": "nonpayable",
      "type": "function"
    },
    {
      "inputs": [
        {
          "internalType": "address",
          "name": "newImplementation",
          "type": "address"
        }
      ],
      "name": "upgradeTo",
      "outputs": [],
      "stateMutability": "nonpayable",
      "type": "function"
    },
    {
      "inputs": [
        {
          "internalType": "address",
          "name": "newImplementation",
          "type": "address"
        },
        {
          "internalType": "bytes",
          "name": "data",
          "type": "bytes"
        }
      ],
      "name": "upgradeToAndCall",
      "outputs": [],
      "stateMutability": "payable",
      "type": "function"
    }
  ],
  "bytecode": "0x60a06040523060805234801561001457600080fd5b5061001d61002a565b61002561002a565b6100ea565b600054610100900460ff16156100965760405162461bcd60e51b815260206004820152602760248201527f496e697469616c697a61626c653a20636f6e747261637420697320696e697469604482015266616c697a696e6760c81b606482015260840160405180910390fd5b60005460ff90811610156100e8576000805460ff191660ff9081179091556040519081527f7f26b83ff96e1f2b6a682f133852f6798a09c465da95921460cefb38474024989060200160405180910390a15b565b608051611a27620001226000396000818161040a0152818161045301528181610595015281816105d501526106510152611a276000f3fe6080604052600436106100fe5760003560e01c80634f1ef2861161009557806395d89b411161006457806395d89b41146102995780639dc29fac146102ae578063a457c2d7146102ce578063a9059cbb146102ee578063dd62ed3e1461030e57600080fd5b80634f1ef2861461021b57806352d1902d1461022e57806370a0823114610243578063906571471461027957600080fd5b8063313ce567116100d1578063313ce5671461019d5780633659cfe6146101b957806339509351146101db57806340c10f19146101fb57600080fd5b806306fdde0314610103578063095ea7b31461012e57806318160ddd1461015e57806323b872dd1461017d575b600080fd5b34801561010f57600080fd5b5061011861032e565b60405161012591906114a0565b60405180910390f35b34801561013a57600080fd5b5061014e6101493660046114e8565b6103c0565b6040519015158152602001610125565b34801561016a57600080fd5b506099545b604051908152602001610125565b34801561018957600080fd5b5061014e610198366004611514565b6103da565b3480156101a957600080fd5b5060405160048152602001610125565b3480156101c557600080fd5b506101d96101d4366004611555565b610400565b005b3480156101e757600080fd5b5061014e6101f63660046114e8565b6104d1565b34801561020757600080fd5b506101d96102163660046114e8565b6104f3565b6101d96102293660046115fe565b61058b565b34801561023a57600080fd5b5061016f610644565b34801561024f57600080fd5b5061016f61025e366004611555565b6001600160a01b031660009081526097602052604090205490565b34801561028557600080fd5b506101d9610294366004611682565b6106f7565b3480156102a557600080fd5b50610118610816565b3480156102ba57600080fd5b506101d96102c93660046114e8565b610825565b3480156102da57600080fd5b5061014e6102e93660046114e8565b6108b8565b3480156102fa57600080fd5b5061014e6103093660046114e8565b61093e565b34801561031a57600080fd5b5061016f6103293660046116f8565b61094c565b6060609a805461033d90611731565b80601f016020809104026020016040519081016040528092919081815260200182805461036990611731565b80156103b65780601f1061038b576101008083540402835291602001916103b6565b820191906000526020600020905b81548152906001019060200180831161039957829003601f168201915b5050505050905090565b6000336103ce818585610977565b60019150505b92915050565b6000336103e8858285610a9b565b6103f3858585610b0f565b60019150505b9392505050565b6001600160a01b037f00000000000000000000000000000000000000000000000000000000000000001630036104515760405162461bcd60e51b81526004016104489061176b565b60405180910390fd5b7f00000000000000000000000000000000000000000000000000000000000000006001600160a01b0316610483610cba565b6001600160a01b0316146104a95760405162461bcd60e51b8152600401610448906117b7565b6104b281610cdb565b604080516000808252602082019092526104ce91839190610d49565b50565b6000336103ce8185856104e4838361094c565b6104ee9190611803565b610977565b7ff0887ba65ee2024ea881d91b74c2450ef19e1557f03bed3ea9f16b037cbe2dc961051c610eb4565b6040516312d9a6ad60e01b8152600481018390523360248201526001600160a01b0391909116906312d9a6ad9060440160006040518083038186803b15801561056457600080fd5b505afa158015610578573d6000803e3d6000fd5b505050506105868383610edc565b505050565b6001600160a01b037f00000000000000000000000000000000000000000000000000000000000000001630036105d35760405162461bcd60e51b81526004016104489061176b565b7f00000000000000000000000000000000000000000000000000000000000000006001600160a01b0316610605610cba565b6001600160a01b03161461062b5760405162461bcd60e51b8152600401610448906117b7565b61063482610cdb565b61064082826001610d49565b5050565b6000306001600160a01b037f000000000000000000000000000000000000000000000000000000000000000016146106e45760405162461bcd60e51b815260206004820152603860248201527f555550535570677261646561626c653a206d757374206e6f742062652063616c60448201527f6c6564207468726f7567682064656c656761746563616c6c00000000000000006064820152608401610448565b506000805160206119ab83398151915290565b600054610100900460ff16158080156107175750600054600160ff909116105b806107315750303b158015610731575060005460ff166001145b6107945760405162461bcd60e51b815260206004820152602e60248201527f496e697469616c697a61626c653a20636f6e747261637420697320616c72656160448201526d191e481a5b9a5d1a585b1a5e995960921b6064820152608401610448565b6000805460ff1916600117905580156107b7576000805461ff0019166101001790555b6107c084610f9d565b6107ca8383610fcd565b8015610810576000805461ff0019169055604051600181527f7f26b83ff96e1f2b6a682f133852f6798a09c465da95921460cefb38474024989060200160405180910390a15b50505050565b6060609b805461033d90611731565b7f9667e80708b6eeeb0053fa0cca44e028ff548e2a9f029edfeac87c118b08b7c861084e610eb4565b6040516312d9a6ad60e01b8152600481018390523360248201526001600160a01b0391909116906312d9a6ad9060440160006040518083038186803b15801561089657600080fd5b505afa1580156108aa573d6000803e3d6000fd5b505050506105868383610ffe565b600033816108c6828661094c565b9050838110156109265760405162461bcd60e51b815260206004820152602560248201527f45524332303a2064656372656173656420616c6c6f77616e63652062656c6f77604482015264207a65726f60d81b6064820152608401610448565b6109338286868403610977565b506001949350505050565b6000336103ce818585610b0f565b6001600160a01b03918216600090815260986020908152604080832093909416825291909152205490565b6001600160a01b0383166109d95760405162461bcd60e51b8152602060048201526024808201527f45524332303a20617070726f76652066726f6d20746865207a65726f206164646044820152637265737360e01b6064820152608401610448565b6001600160a01b038216610a3a5760405162461bcd60e51b815260206004820152602260248201527f45524332303a20617070726f766520746f20746865207a65726f206164647265604482015261737360f01b6064820152608401610448565b6001600160a01b0383811660008181526098602090815260408083209487168084529482529182902085905590518481527f8c5be1e5ebec7d5bd14f71427d1e84f3dd0314c0f7b2291e5b200ac8c7c3b925910160405180910390a3505050565b6000610aa7848461094c565b905060001981146108105781811015610b025760405162461bcd60e51b815260206004820152601d60248201527f45524332303a20696e73756666696369656e7420616c6c6f77616e63650000006044820152606401610448565b6108108484848403610977565b6001600160a01b038316610b735760405162461bcd60e51b815260206004820152602560248201527f45524332303a207472616e736665722066726f6d20746865207a65726f206164604482015264647265737360d81b6064820152608401610448565b6001600160a01b038216610bd55760405162461bcd60e51b815260206004820152602360248201527f45524332303a207472616e7366657220746f20746865207a65726f206164647260448201526265737360e81b6064820152608401610448565b6001600160a01b03831660009081526097602052604090205481811015610c4d5760405162461bcd60e51b815260206004820152602660248201527f45524332303a207472616e7366657220616d6f756e7420657863656564732062604482015265616c616e636560d01b6064820152608401610448565b6001600160a01b0380851660008181526097602052604080822086860390559286168082529083902080548601905591517fddf252ad1be2c89b69c2b068fc378daa952ba7f163c4a11628f55a4df523b3ef90610cad9086815260200190565b60405180910390a3610810565b60006000805160206119ab8339815191525b546001600160a01b0316919050565b6000610ce5610eb4565b6040516312d9a6ad60e01b8152600481018390523360248201526001600160a01b0391909116906312d9a6ad9060440160006040518083038186803b158015610d2d57600080fd5b505afa158015610d41573d6000803e3d6000fd5b505050505050565b7f4910fdfa16fed3260ed0e7147f7cc6da11a60208b5b9406d12a635614ffd91435460ff1615610d7c5761058683611132565b826001600160a01b03166352d1902d6040518163ffffffff1660e01b8152600401602060405180830381865afa925050508015610dd6575060408051601f3d908101601f19168201909252610dd391810190611824565b60015b610e395760405162461bcd60e51b815260206004820152602e60248201527f45524331393637557067726164653a206e657720696d706c656d656e7461746960448201526d6f6e206973206e6f74205555505360901b6064820152608401610448565b6000805160206119ab8339815191528114610ea85760405162461bcd60e51b815260206004820152602960248201527f45524331393637557067726164653a20756e737570706f727465642070726f786044820152681a58589b195555525160ba1b6064820152608401610448565b506105868383836111d1565b60007f3ff07d6b238084e39fc5d050e304626ccf5b5ccb8f457170664beef2c5e4919a610ccc565b6001600160a01b038216610f325760405162461bcd60e51b815260206004820152601f60248201527f45524332303a206d696e7420746f20746865207a65726f2061646472657373006044820152606401610448565b8060996000828254610f449190611803565b90915550506001600160a01b0382166000818152609760209081526040808320805486019055518481527fddf252ad1be2c89b69c2b068fc378daa952ba7f163c4a11628f55a4df523b3ef910160405180910390a35050565b600054610100900460ff16610fc45760405162461bcd60e51b81526004016104489061183d565b6104ce816111f6565b600054610100900460ff16610ff45760405162461bcd60e51b81526004016104489061183d565b6106408282611226565b6001600160a01b03821661105e5760405162461bcd60e51b815260206004820152602160248201527f45524332303a206275726e2066726f6d20746865207a65726f206164647265736044820152607360f81b6064820152608401610448565b6001600160a01b038216600090815260976020526040902054818110156110d25760405162461bcd60e51b815260206004820152602260248201527f45524332303a206275726e20616d6f756e7420657863656564732062616c616e604482015261636560f01b6064820152608401610448565b6001600160a01b03831660008181526097602090815260408083208686039055609980548790039055518581529192917fddf252ad1be2c89b69c2b068fc378daa952ba7f163c4a11628f55a4df523b3ef910160405180910390a3505050565b6001600160a01b0381163b61119f5760405162461bcd60e51b815260206004820152602d60248201527f455243313936373a206e657720696d706c656d656e746174696f6e206973206e60448201526c1bdd08184818dbdb9d1c9858dd609a1b6064820152608401610448565b806000805160206119ab8339815191525b80546001600160a01b0319166001600160a01b039290921691909117905550565b6111da83611266565b6000825111806111e75750805b156105865761081083836112a6565b600054610100900460ff1661121d5760405162461bcd60e51b81526004016104489061183d565b6104ce8161139a565b600054610100900460ff1661124d5760405162461bcd60e51b81526004016104489061183d565b609a61125983826118ce565b50609b61058682826118ce565b61126f81611132565b6040516001600160a01b038216907fbc7cd75a20ee27fd9adebab32041f755214dbc6bffa90cc0225b39da2e5c2d3b90600090a250565b60606001600160a01b0383163b61130e5760405162461bcd60e51b815260206004820152602660248201527f416464726573733a2064656c65676174652063616c6c20746f206e6f6e2d636f6044820152651b9d1c9858dd60d21b6064820152608401610448565b600080846001600160a01b031684604051611329919061198e565b600060405180830381855af49150503d8060008114611364576040519150601f19603f3d011682016040523d82523d6000602084013e611369565b606091505b509150915061139182826040518060600160405280602781526020016119cb6027913961143e565b95945050505050565b6001600160a01b0381163b6114175760405162461bcd60e51b815260206004820152603960248201527f416363657373526573747269637465643a204e65772061636365737320636f6e60448201527f74726f6c6c6572206973206e6f74206120636f6e7472616374000000000000006064820152608401610448565b807f3ff07d6b238084e39fc5d050e304626ccf5b5ccb8f457170664beef2c5e4919a6111b0565b6060831561144d5750816103f9565b6103f983838151156114625781518083602001fd5b8060405162461bcd60e51b815260040161044891906114a0565b60005b8381101561149757818101518382015260200161147f565b50506000910152565b60208152600082518060208401526114bf81604085016020870161147c565b601f01601f19169190910160400192915050565b6001600160a01b03811681146104ce57600080fd5b600080604083850312156114fb57600080fd5b8235611506816114d3565b946020939093013593505050565b60008060006060848603121561152957600080fd5b8335611534816114d3565b92506020840135611544816114d3565b929592945050506040919091013590565b60006020828403121561156757600080fd5b81356103f9816114d3565b634e487b7160e01b600052604160045260246000fd5b600067ffffffffffffffff808411156115a3576115a3611572565b604051601f8501601f19908116603f011681019082821181831017156115cb576115cb611572565b816040528093508581528686860111156115e457600080fd5b858560208301376000602087830101525050509392505050565b6000806040838503121561161157600080fd5b823561161c816114d3565b9150602083013567ffffffffffffffff81111561163857600080fd5b8301601f8101851361164957600080fd5b61165885823560208401611588565b9150509250929050565b600082601f83011261167357600080fd5b6103f983833560208501611588565b60008060006060848603121561169757600080fd5b83356116a2816114d3565b9250602084013567ffffffffffffffff808211156116bf57600080fd5b6116cb87838801611662565b935060408601359150808211156116e157600080fd5b506116ee86828701611662565b9150509250925092565b6000806040838503121561170b57600080fd5b8235611716816114d3565b91506020830135611726816114d3565b809150509250929050565b600181811c9082168061174557607f821691505b60208210810361176557634e487b7160e01b600052602260045260246000fd5b50919050565b6020808252602c908201527f46756e6374696f6e206d7573742062652063616c6c6564207468726f7567682060408201526b19195b1959d85d1958d85b1b60a21b606082015260800190565b6020808252602c908201527f46756e6374696f6e206d7573742062652063616c6c6564207468726f7567682060408201526b6163746976652070726f787960a01b606082015260800190565b808201808211156103d457634e487b7160e01b600052601160045260246000fd5b60006020828403121561183657600080fd5b5051919050565b6020808252602b908201527f496e697469616c697a61626c653a20636f6e7472616374206973206e6f74206960408201526a6e697469616c697a696e6760a81b606082015260800190565b601f82111561058657600081815260208120601f850160051c810160208610156118af5750805b601f850160051c820191505b81811015610d41578281556001016118bb565b815167ffffffffffffffff8111156118e8576118e8611572565b6118fc816118f68454611731565b84611888565b602080601f83116001811461193157600084156119195750858301515b600019600386901b1c1916600185901b178555610d41565b600085815260208120601f198616915b8281101561196057888601518255948401946001909101908401611941565b508582101561197e5787850151600019600388901b60f8161c191681555b5050505050600190811b01905550565b600082516119a081846020870161147c565b919091019291505056fe360894a13ba1a3210667c828492db98dca3e2076cc3735a920a3ca505d382bbc416464726573733a206c6f772d6c6576656c2064656c65676174652063616c6c206661696c6564a26469706673582212206c32d1b2684913fb3b5d23aac831aa19521c289cfcae6ba9c1cfb922ddd6fc3664736f6c63430008110033",
  "linkReferences": {},
  "deployedLinkReferences": {}
}