{
  "_format": "hh-sol-artifact-1",
  "contractName": "TheaERC1155",
  "sourceName": "contracts/TheaERC1155.sol",
  "abi": [
    {
      "inputs": [],
      "stateMutability": "nonpayable",
      "type": "constructor"
    },
    {
      "anonymous": false,
      "inputs": [
        {
          "indexed": false,
          "internalType": "address",
          "name": "previousAdmin",
          "type": "address"
        },
        {
          "indexed": false,
          "internalType": "address",
          "name": "newAdmin",
          "type": "address"
        }
      ],
      "name": "AdminChanged",
      "type": "event"
    },
    {
      "anonymous": false,
      "inputs": [
        {
          "indexed": true,
          "internalType": "address",
          "name": "account",
          "type": "address"
        },
        {
          "indexed": true,
          "internalType": "address",
          "name": "operator",
          "type": "address"
        },
        {
          "indexed": false,
          "internalType": "bool",
          "name": "approved",
          "type": "bool"
        }
      ],
      "name": "ApprovalForAll",
      "type": "event"
    },
    {
      "anonymous": false,
      "inputs": [
        {
          "indexed": true,
          "internalType": "address",
          "name": "beacon",
          "type": "address"
        }
      ],
      "name": "BeaconUpgraded",
      "type": "event"
    },
    {
      "anonymous": false,
      "inputs": [
        {
          "indexed": false,
          "internalType": "uint8",
          "name": "version",
          "type": "uint8"
        }
      ],
      "name": "Initialized",
      "type": "event"
    },
    {
      "anonymous": false,
      "inputs": [
        {
          "indexed": true,
          "internalType": "address",
          "name": "operator",
          "type": "address"
        },
        {
          "indexed": true,
          "internalType": "address",
          "name": "from",
          "type": "address"
        },
        {
          "indexed": true,
          "internalType": "address",
          "name": "to",
          "type": "address"
        },
        {
          "indexed": false,
          "internalType": "uint256[]",
          "name": "ids",
          "type": "uint256[]"
        },
        {
          "indexed": false,
          "internalType": "uint256[]",
          "name": "values",
          "type": "uint256[]"
        }
      ],
      "name": "TransferBatch",
      "type": "event"
    },
    {
      "anonymous": false,
      "inputs": [
        {
          "indexed": true,
          "internalType": "address",
          "name": "operator",
          "type": "address"
        },
        {
          "indexed": true,
          "internalType": "address",
          "name": "from",
          "type": "address"
        },
        {
          "indexed": true,
          "internalType": "address",
          "name": "to",
          "type": "address"
        },
        {
          "indexed": false,
          "internalType": "uint256",
          "name": "id",
          "type": "uint256"
        },
        {
          "indexed": false,
          "internalType": "uint256",
          "name": "value",
          "type": "uint256"
        }
      ],
      "name": "TransferSingle",
      "type": "event"
    },
    {
      "anonymous": false,
      "inputs": [
        {
          "indexed": false,
          "internalType": "string",
          "name": "value",
          "type": "string"
        },
        {
          "indexed": true,
          "internalType": "uint256",
          "name": "id",
          "type": "uint256"
        }
      ],
      "name": "URI",
      "type": "event"
    },
    {
      "anonymous": false,
      "inputs": [
        {
          "indexed": true,
          "internalType": "address",
          "name": "implementation",
          "type": "address"
        }
      ],
      "name": "Upgraded",
      "type": "event"
    },
    {
      "inputs": [
        {
          "internalType": "address",
          "name": "account",
          "type": "address"
        },
        {
          "internalType": "uint256",
          "name": "id",
          "type": "uint256"
        }
      ],
      "name": "balanceOf",
      "outputs": [
        {
          "internalType": "uint256",
          "name": "",
          "type": "uint256"
        }
      ],
      "stateMutability": "view",
      "type": "function"
    },
    {
      "inputs": [
        {
          "internalType": "address[]",
          "name": "accounts",
          "type": "address[]"
        },
        {
          "internalType": "uint256[]",
          "name": "ids",
          "type": "uint256[]"
        }
      ],
      "name": "balanceOfBatch",
      "outputs": [
        {
          "internalType": "uint256[]",
          "name": "",
          "type": "uint256[]"
        }
      ],
      "stateMutability": "view",
      "type": "function"
    },
    {
      "inputs": [
        {
          "internalType": "address",
          "name": "from",
          "type": "address"
        },
        {
          "internalType": "uint256",
          "name": "id",
          "type": "uint256"
        },
        {
          "internalType": "uint256",
          "name": "amount",
          "type": "uint256"
        }
      ],
      "name": "burn",
      "outputs": [],
      "stateMutability": "nonpayable",
      "type": "function"
    },
    {
      "inputs": [
        {
          "internalType": "address",
          "name": "from",
          "type": "address"
        },
        {
          "internalType": "uint256[]",
          "name": "ids",
          "type": "uint256[]"
        },
        {
          "internalType": "uint256[]",
          "name": "amounts",
          "type": "uint256[]"
        }
      ],
      "name": "burnBatch",
      "outputs": [],
      "stateMutability": "nonpayable",
      "type": "function"
    },
    {
      "inputs": [
        {
          "internalType": "contract AccessController",
          "name": "accessController_",
          "type": "address"
        },
        {
          "internalType": "string",
          "name": "name_",
          "type": "string"
        },
        {
          "internalType": "string",
          "name": "symbol_",
          "type": "string"
        },
        {
          "internalType": "string",
          "name": "uri_",
          "type": "string"
        }
      ],
      "name": "initialize",
      "outputs": [],
      "stateMutability": "nonpayable",
      "type": "function"
    },
    {
      "inputs": [
        {
          "internalType": "address",
          "name": "account",
          "type": "address"
        },
        {
          "internalType": "address",
          "name": "operator",
          "type": "address"
        }
      ],
      "name": "isApprovedForAll",
      "outputs": [
        {
          "internalType": "bool",
          "name": "",
          "type": "bool"
        }
      ],
      "stateMutability": "view",
      "type": "function"
    },
    {
      "inputs": [
        {
          "internalType": "address",
          "name": "to",
          "type": "address"
        },
        {
          "internalType": "uint256",
          "name": "id",
          "type": "uint256"
        },
        {
          "internalType": "uint256",
          "name": "amount",
          "type": "uint256"
        },
        {
          "internalType": "bytes",
          "name": "data",
          "type": "bytes"
        }
      ],
      "name": "mint",
      "outputs": [],
      "stateMutability": "nonpayable",
      "type": "function"
    },
    {
      "inputs": [
        {
          "internalType": "address",
          "name": "to",
          "type": "address"
        },
        {
          "internalType": "uint256[]",
          "name": "ids",
          "type": "uint256[]"
        },
        {
          "internalType": "uint256[]",
          "name": "amounts",
          "type": "uint256[]"
        },
        {
          "internalType": "bytes",
          "name": "data",
          "type": "bytes"
        }
      ],
      "name": "mintBatch",
      "outputs": [],
      "stateMutability": "nonpayable",
      "type": "function"
    },
    {
      "inputs": [],
      "name": "name",
      "outputs": [
        {
          "internalType": "string",
          "name": "",
          "type": "string"
        }
      ],
      "stateMutability": "view",
      "type": "function"
    },
    {
      "inputs": [],
      "name": "proxiableUUID",
      "outputs": [
        {
          "internalType": "bytes32",
          "name": "",
          "type": "bytes32"
        }
      ],
      "stateMutability": "view",
      "type": "function"
    },
    {
      "inputs": [
        {
          "internalType": "address",
          "name": "from",
          "type": "address"
        },
        {
          "internalType": "address",
          "name": "to",
          "type": "address"
        },
        {
          "internalType": "uint256[]",
          "name": "ids",
          "type": "uint256[]"
        },
        {
          "internalType": "uint256[]",
          "name": "amounts",
          "type": "uint256[]"
        },
        {
          "internalType": "bytes",
          "name": "data",
          "type": "bytes"
        }
      ],
      "name": "safeBatchTransferFrom",
      "outputs": [],
      "stateMutability": "nonpayable",
      "type": "function"
    },
    {
      "inputs": [
        {
          "internalType": "address",
          "name": "from",
          "type": "address"
        },
        {
          "internalType": "address",
          "name": "to",
          "type": "address"
        },
        {
          "internalType": "uint256",
          "name": "id",
          "type": "uint256"
        },
        {
          "internalType": "uint256",
          "name": "amount",
          "type": "uint256"
        },
        {
          "internalType": "bytes",
          "name": "data",
          "type": "bytes"
        }
      ],
      "name": "safeTransferFrom",
      "outputs": [],
      "stateMutability": "nonpayable",
      "type": "function"
    },
    {
      "inputs": [
        {
          "internalType": "address",
          "name": "operator",
          "type": "address"
        },
        {
          "internalType": "bool",
          "name": "approved",
          "type": "bool"
        }
      ],
      "name": "setApprovalForAll",
      "outputs": [],
      "stateMutability": "nonpayable",
      "type": "function"
    },
    {
      "inputs": [
        {
          "internalType": "string",
          "name": "uri_",
          "type": "string"
        }
      ],
      "name": "setURI",
      "outputs": [],
      "stateMutability": "nonpayable",
      "type": "function"
    },
    {
      "inputs": [
        {
          "internalType": "bytes4",
          "name": "interfaceId",
          "type": "bytes4"
        }
      ],
      "name": "supportsInterface",
      "outputs": [
        {
          "internalType": "bool",
          "name": "",
          "type": "bool"
        }
      ],
      "stateMutability": "view",
      "type": "function"
    },
    {
      "inputs": [],
      "name": "symbol",
      "outputs": [
        {
          "internalType": "string",
          "name": "",
          "type": "string"
        }
      ],
      "stateMutability": "view",
      "type": "function"
    },
    {
      "inputs": [
        {
          "internalType": "address",
          "name": "newImplementation",
          "type": "address"
        }
      ],
      "name": "upgradeTo",
      "outputs": [],
      "stateMutability": "nonpayable",
      "type": "function"
    },
    {
      "inputs": [
        {
          "internalType": "address",
          "name": "newImplementation",
          "type": "address"
        },
        {
          "internalType": "bytes",
          "name": "data",
          "type": "bytes"
        }
      ],
      "name": "upgradeToAndCall",
      "outputs": [],
      "stateMutability": "payable",
      "type": "function"
    },
    {
      "inputs": [
        {
          "internalType": "uint256",
          "name": "",
          "type": "uint256"
        }
      ],
      "name": "uri",
      "outputs": [
        {
          "internalType": "string",
          "name": "",
          "type": "string"
        }
      ],
      "stateMutability": "view",
      "type": "function"
    }
  ],
  "bytecode": "0x60a0604052306080523480156200001557600080fd5b506200002062000026565b620000e8565b600054610100900460ff1615620000935760405162461bcd60e51b815260206004820152602760248201527f496e697469616c697a61626c653a20636f6e747261637420697320696e697469604482015266616c697a696e6760c81b606482015260840160405180910390fd5b60005460ff9081161015620000e6576000805460ff191660ff9081179091556040519081527f7f26b83ff96e1f2b6a682f133852f6798a09c465da95921460cefb38474024989060200160405180910390a15b565b608051612e72620001206000396000818161074401528181610784015281816109350152818161097501526109ed0152612e726000f3fe6080604052600436106101135760003560e01c80634f1ef286116100a057806395d89b411161006457806395d89b41146102f4578063a22cb46514610309578063e985e9c514610329578063f242432a14610372578063f5298aca1461039257600080fd5b80634f1ef2861461026c57806352d1902d1461027f5780635f1e6f6d146102945780636b20c454146102b4578063731133e9146102d457600080fd5b80630e89341c116100e75780630e89341c146101bf5780631f7fdffa146101df5780632eb2c2d6146101ff5780633659cfe61461021f5780634e1273f41461023f57600080fd5b8062fdd58e1461011857806301ffc9a71461014b57806302fe53051461017b57806306fdde031461019d575b600080fd5b34801561012457600080fd5b50610138610133366004611ec0565b6103b2565b6040519081526020015b60405180910390f35b34801561015757600080fd5b5061016b610166366004611f02565b61044d565b6040519015158152602001610142565b34801561018757600080fd5b5061019b610196366004611fbe565b61049d565b005b3480156101a957600080fd5b506101b2610533565b604051610142919061205e565b3480156101cb57600080fd5b506101b26101da366004612071565b6105c5565b3480156101eb57600080fd5b5061019b6101fa36600461213e565b610659565b34801561020b57600080fd5b5061019b61021a3660046121d8565b6106f5565b34801561022b57600080fd5b5061019b61023a366004612285565b61073a565b34801561024b57600080fd5b5061025f61025a3660046122a2565b610802565b60405161014291906123a9565b61019b61027a3660046123bc565b61092b565b34801561028b57600080fd5b506101386109e0565b3480156102a057600080fd5b5061019b6102af366004612449565b610a94565b3480156102c057600080fd5b5061019b6102cf3660046124f5565b610c08565b3480156102e057600080fd5b5061019b6102ef36600461256a565b610ca2565b34801561030057600080fd5b506101b2610d37565b34801561031557600080fd5b5061019b6103243660046125c0565b610d46565b34801561033557600080fd5b5061016b6103443660046125fe565b6001600160a01b03918216600090815260ca6020908152604080832093909416825291909152205460ff1690565b34801561037e57600080fd5b5061019b61038d36600461262c565b610d51565b34801561039e57600080fd5b5061019b6103ad366004612694565b610d96565b60006001600160a01b0383166104225760405162461bcd60e51b815260206004820152602a60248201527f455243313135353a2061646472657373207a65726f206973206e6f742061207660448201526930b634b21037bbb732b960b11b60648201526084015b60405180910390fd5b50600081815260c9602090815260408083206001600160a01b03861684529091529020545b92915050565b60006001600160e01b03198216636cdb3d1360e11b148061047e57506001600160e01b031982166303a24d0760e21b145b8061044757506301ffc9a760e01b6001600160e01b0319831614610447565b7f2f4d262126851b7375a3f8924e52498465da3726c837fcbcfe71cefcaf66e9b26104c6610e2a565b6040516312d9a6ad60e01b8152600481018390523360248201526001600160a01b0391909116906312d9a6ad9060440160006040518083038186803b15801561050e57600080fd5b505afa158015610522573d6000803e3d6000fd5b5050505061052f82610e5d565b5050565b606060fb8054610542906126c9565b80601f016020809104026020016040519081016040528092919081815260200182805461056e906126c9565b80156105bb5780601f10610590576101008083540402835291602001916105bb565b820191906000526020600020905b81548152906001019060200180831161059e57829003601f168201915b5050505050905090565b606060cb80546105d4906126c9565b80601f0160208091040260200160405190810160405280929190818152602001828054610600906126c9565b801561064d5780601f106106225761010080835404028352916020019161064d565b820191906000526020600020905b81548152906001019060200180831161063057829003601f168201915b50505050509050919050565b7ff0887ba65ee2024ea881d91b74c2450ef19e1557f03bed3ea9f16b037cbe2dc9610682610e2a565b6040516312d9a6ad60e01b8152600481018390523360248201526001600160a01b0391909116906312d9a6ad9060440160006040518083038186803b1580156106ca57600080fd5b505afa1580156106de573d6000803e3d6000fd5b505050506106ee85858585610e69565b5050505050565b6001600160a01b03851633148061071157506107118533610344565b61072d5760405162461bcd60e51b815260040161041990612703565b6106ee8585858585610fb5565b6001600160a01b037f00000000000000000000000000000000000000000000000000000000000000001630036107825760405162461bcd60e51b815260040161041990612751565b7f00000000000000000000000000000000000000000000000000000000000000006001600160a01b03166107b4611154565b6001600160a01b0316146107da5760405162461bcd60e51b81526004016104199061279d565b6107e38161116a565b604080516000808252602082019092526107ff918391906111d0565b50565b606081518351146108675760405162461bcd60e51b815260206004820152602960248201527f455243313135353a206163636f756e747320616e6420696473206c656e677468604482015268040dad2e6dac2e8c6d60bb1b6064820152608401610419565b600083516001600160401b0381111561088257610882611f1f565b6040519080825280602002602001820160405280156108ab578160200160208202803683370190505b50905060005b8451811015610923576108f68582815181106108cf576108cf6127e9565b60200260200101518583815181106108e9576108e96127e9565b60200260200101516103b2565b828281518110610908576109086127e9565b602090810291909101015261091c81612815565b90506108b1565b509392505050565b6001600160a01b037f00000000000000000000000000000000000000000000000000000000000000001630036109735760405162461bcd60e51b815260040161041990612751565b7f00000000000000000000000000000000000000000000000000000000000000006001600160a01b03166109a5611154565b6001600160a01b0316146109cb5760405162461bcd60e51b81526004016104199061279d565b6109d48261116a565b61052f828260016111d0565b6000306001600160a01b037f00000000000000000000000000000000000000000000000000000000000000001614610a805760405162461bcd60e51b815260206004820152603860248201527f555550535570677261646561626c653a206d757374206e6f742062652063616c60448201527f6c6564207468726f7567682064656c656761746563616c6c00000000000000006064820152608401610419565b50600080516020612df68339815191525b90565b600054610100900460ff1615808015610ab45750600054600160ff909116105b80610ace5750303b158015610ace575060005460ff166001145b610b315760405162461bcd60e51b815260206004820152602e60248201527f496e697469616c697a61626c653a20636f6e747261637420697320616c72656160448201526d191e481a5b9a5d1a585b1a5e995960921b6064820152608401610419565b6000805460ff191660011790558015610b54576000805461ff0019166101001790555b610b5d88611340565b610b9c83838080601f01602080910402602001604051908101604052809392919081815260200183838082843760009201919091525061137092505050565b60fb610ba9878983612874565b5060fc610bb7858783612874565b508015610bfe576000805461ff0019169055604051600181527f7f26b83ff96e1f2b6a682f133852f6798a09c465da95921460cefb38474024989060200160405180910390a15b5050505050505050565b7f9667e80708b6eeeb0053fa0cca44e028ff548e2a9f029edfeac87c118b08b7c8610c31610e2a565b6040516312d9a6ad60e01b8152600481018390523360248201526001600160a01b0391909116906312d9a6ad9060440160006040518083038186803b158015610c7957600080fd5b505afa158015610c8d573d6000803e3d6000fd5b50505050610c9c8484846113a0565b50505050565b7ff0887ba65ee2024ea881d91b74c2450ef19e1557f03bed3ea9f16b037cbe2dc9610ccb610e2a565b6040516312d9a6ad60e01b8152600481018390523360248201526001600160a01b0391909116906312d9a6ad9060440160006040518083038186803b158015610d1357600080fd5b505afa158015610d27573d6000803e3d6000fd5b505050506106ee8585858561152d565b606060fc8054610542906126c9565b61052f338383611609565b6001600160a01b038516331480610d6d5750610d6d8533610344565b610d895760405162461bcd60e51b815260040161041990612703565b6106ee85858585856116e9565b7f9667e80708b6eeeb0053fa0cca44e028ff548e2a9f029edfeac87c118b08b7c8610dbf610e2a565b6040516312d9a6ad60e01b8152600481018390523360248201526001600160a01b0391909116906312d9a6ad9060440160006040518083038186803b158015610e0757600080fd5b505afa158015610e1b573d6000803e3d6000fd5b50505050610c9c848484611817565b60007f3ff07d6b238084e39fc5d050e304626ccf5b5ccb8f457170664beef2c5e4919a5b546001600160a01b0316919050565b60cb61052f8282612933565b6001600160a01b038416610e8f5760405162461bcd60e51b8152600401610419906129f2565b8151835114610eb05760405162461bcd60e51b815260040161041990612a33565b3360005b8451811015610f4d57838181518110610ecf57610ecf6127e9565b602002602001015160c96000878481518110610eed57610eed6127e9565b602002602001015181526020019081526020016000206000886001600160a01b03166001600160a01b031681526020019081526020016000206000828254610f359190612a7b565b90915550819050610f4581612815565b915050610eb4565b50846001600160a01b031660006001600160a01b0316826001600160a01b03167f4a39dc06d4c0dbc64b70af90fd698a233a518aa5d07e595d983b8c0526c8f7fb8787604051610f9e929190612a8e565b60405180910390a46106ee8160008787878761191e565b8151835114610fd65760405162461bcd60e51b815260040161041990612a33565b6001600160a01b038416610ffc5760405162461bcd60e51b815260040161041990612ab3565b3360005b84518110156110e657600085828151811061101d5761101d6127e9565b60200260200101519050600085838151811061103b5761103b6127e9565b602090810291909101810151600084815260c9835260408082206001600160a01b038e16835290935291909120549091508181101561108c5760405162461bcd60e51b815260040161041990612af8565b600083815260c9602090815260408083206001600160a01b038e8116855292528083208585039055908b168252812080548492906110cb908490612a7b565b92505081905550505050806110df90612815565b9050611000565b50846001600160a01b0316866001600160a01b0316826001600160a01b03167f4a39dc06d4c0dbc64b70af90fd698a233a518aa5d07e595d983b8c0526c8f7fb8787604051611136929190612a8e565b60405180910390a461114c81878787878761191e565b505050505050565b6000600080516020612df6833981519152610e4e565b6000611174610e2a565b6040516312d9a6ad60e01b8152600481018390523360248201526001600160a01b0391909116906312d9a6ad9060440160006040518083038186803b1580156111bc57600080fd5b505afa15801561114c573d6000803e3d6000fd5b7f4910fdfa16fed3260ed0e7147f7cc6da11a60208b5b9406d12a635614ffd91435460ff16156112085761120383611a79565b505050565b826001600160a01b03166352d1902d6040518163ffffffff1660e01b8152600401602060405180830381865afa925050508015611262575060408051601f3d908101601f1916820190925261125f91810190612b42565b60015b6112c55760405162461bcd60e51b815260206004820152602e60248201527f45524331393637557067726164653a206e657720696d706c656d656e7461746960448201526d6f6e206973206e6f74205555505360901b6064820152608401610419565b600080516020612df683398151915281146113345760405162461bcd60e51b815260206004820152602960248201527f45524331393637557067726164653a20756e737570706f727465642070726f786044820152681a58589b195555525160ba1b6064820152608401610419565b50611203838383611b18565b600054610100900460ff166113675760405162461bcd60e51b815260040161041990612b5b565b6107ff81611b3d565b600054610100900460ff166113975760405162461bcd60e51b815260040161041990612b5b565b6107ff81611b6d565b6001600160a01b0383166113c65760405162461bcd60e51b815260040161041990612ba6565b80518251146113e75760405162461bcd60e51b815260040161041990612a33565b604080516020810190915260009081905233905b83518110156114c0576000848281518110611418576114186127e9565b602002602001015190506000848381518110611436576114366127e9565b602090810291909101810151600084815260c9835260408082206001600160a01b038c1683529093529190912054909150818110156114875760405162461bcd60e51b815260040161041990612be9565b600092835260c9602090815260408085206001600160a01b038b16865290915290922091039055806114b881612815565b9150506113fb565b5060006001600160a01b0316846001600160a01b0316826001600160a01b03167f4a39dc06d4c0dbc64b70af90fd698a233a518aa5d07e595d983b8c0526c8f7fb8686604051611511929190612a8e565b60405180910390a4604080516020810190915260009052610c9c565b6001600160a01b0384166115535760405162461bcd60e51b8152600401610419906129f2565b33600061155f85611b9d565b9050600061156c85611b9d565b9050600086815260c9602090815260408083206001600160a01b038b168452909152812080548792906115a0908490612a7b565b909155505060408051878152602081018790526001600160a01b03808a1692600092918716917fc3d58168c5ae7397731d063d5bbf3d657854427343f4c083240f7aacaa2d0f62910160405180910390a461160083600089898989611be8565b50505050505050565b816001600160a01b0316836001600160a01b03160361167c5760405162461bcd60e51b815260206004820152602960248201527f455243313135353a2073657474696e6720617070726f76616c20737461747573604482015268103337b91039b2b63360b91b6064820152608401610419565b6001600160a01b03838116600081815260ca6020908152604080832094871680845294825291829020805460ff191686151590811790915591519182527f17307eab39ab6107e8899845ad3d59bd9653f200f220920489ca2b5937696c31910160405180910390a3505050565b6001600160a01b03841661170f5760405162461bcd60e51b815260040161041990612ab3565b33600061171b85611b9d565b9050600061172885611b9d565b9050600086815260c9602090815260408083206001600160a01b038c1684529091529020548581101561176d5760405162461bcd60e51b815260040161041990612af8565b600087815260c9602090815260408083206001600160a01b038d8116855292528083208985039055908a168252812080548892906117ac908490612a7b565b909155505060408051888152602081018890526001600160a01b03808b16928c821692918816917fc3d58168c5ae7397731d063d5bbf3d657854427343f4c083240f7aacaa2d0f62910160405180910390a461180c848a8a8a8a8a611be8565b505050505050505050565b6001600160a01b03831661183d5760405162461bcd60e51b815260040161041990612ba6565b33600061184984611b9d565b9050600061185684611b9d565b604080516020808201835260009182905288825260c981528282206001600160a01b038b16835290522054909150848110156118a45760405162461bcd60e51b815260040161041990612be9565b600086815260c9602090815260408083206001600160a01b038b81168086529184528285208a8703905582518b81529384018a90529092908816917fc3d58168c5ae7397731d063d5bbf3d657854427343f4c083240f7aacaa2d0f62910160405180910390a4604080516020810190915260009052611600565b6001600160a01b0384163b1561114c5760405163bc197c8160e01b81526001600160a01b0385169063bc197c81906119629089908990889088908890600401612c2d565b6020604051808303816000875af192505050801561199d575060408051601f3d908101601f1916820190925261199a91810190612c8b565b60015b611a49576119a9612ca8565b806308c379a0036119e257506119bd612cc3565b806119c857506119e4565b8060405162461bcd60e51b8152600401610419919061205e565b505b60405162461bcd60e51b815260206004820152603460248201527f455243313135353a207472616e7366657220746f206e6f6e2d455243313135356044820152732932b1b2b4bb32b91034b6b83632b6b2b73a32b960611b6064820152608401610419565b6001600160e01b0319811663bc197c8160e01b146116005760405162461bcd60e51b815260040161041990612d4c565b6001600160a01b0381163b611ae65760405162461bcd60e51b815260206004820152602d60248201527f455243313936373a206e657720696d706c656d656e746174696f6e206973206e60448201526c1bdd08184818dbdb9d1c9858dd609a1b6064820152608401610419565b80600080516020612df68339815191525b80546001600160a01b0319166001600160a01b039290921691909117905550565b611b2183611ca3565b600082511180611b2e5750805b1561120357610c9c8383611ce3565b600054610100900460ff16611b645760405162461bcd60e51b815260040161041990612b5b565b6107ff81611dd7565b600054610100900460ff16611b945760405162461bcd60e51b815260040161041990612b5b565b6107ff81610e5d565b60408051600180825281830190925260609160009190602080830190803683370190505090508281600081518110611bd757611bd76127e9565b602090810291909101015292915050565b6001600160a01b0384163b1561114c5760405163f23a6e6160e01b81526001600160a01b0385169063f23a6e6190611c2c9089908990889088908890600401612d94565b6020604051808303816000875af1925050508015611c67575060408051601f3d908101601f19168201909252611c6491810190612c8b565b60015b611c73576119a9612ca8565b6001600160e01b0319811663f23a6e6160e01b146116005760405162461bcd60e51b815260040161041990612d4c565b611cac81611a79565b6040516001600160a01b038216907fbc7cd75a20ee27fd9adebab32041f755214dbc6bffa90cc0225b39da2e5c2d3b90600090a250565b60606001600160a01b0383163b611d4b5760405162461bcd60e51b815260206004820152602660248201527f416464726573733a2064656c65676174652063616c6c20746f206e6f6e2d636f6044820152651b9d1c9858dd60d21b6064820152608401610419565b600080846001600160a01b031684604051611d669190612dd9565b600060405180830381855af49150503d8060008114611da1576040519150601f19603f3d011682016040523d82523d6000602084013e611da6565b606091505b5091509150611dce8282604051806060016040528060278152602001612e1660279139611e7b565b95945050505050565b6001600160a01b0381163b611e545760405162461bcd60e51b815260206004820152603960248201527f416363657373526573747269637465643a204e65772061636365737320636f6e60448201527f74726f6c6c6572206973206e6f74206120636f6e7472616374000000000000006064820152608401610419565b807f3ff07d6b238084e39fc5d050e304626ccf5b5ccb8f457170664beef2c5e4919a611af7565b60608315611e8a575081611e94565b611e948383611e9b565b9392505050565b8151156119c85781518083602001fd5b6001600160a01b03811681146107ff57600080fd5b60008060408385031215611ed357600080fd5b8235611ede81611eab565b946020939093013593505050565b6001600160e01b0319811681146107ff57600080fd5b600060208284031215611f1457600080fd5b8135611e9481611eec565b634e487b7160e01b600052604160045260246000fd5b601f8201601f191681016001600160401b0381118282101715611f5a57611f5a611f1f565b6040525050565b60006001600160401b03831115611f7a57611f7a611f1f565b604051611f91601f8501601f191660200182611f35565b809150838152848484011115611fa657600080fd5b83836020830137600060208583010152509392505050565b600060208284031215611fd057600080fd5b81356001600160401b03811115611fe657600080fd5b8201601f81018413611ff757600080fd5b61200684823560208401611f61565b949350505050565b60005b83811015612029578181015183820152602001612011565b50506000910152565b6000815180845261204a81602086016020860161200e565b601f01601f19169290920160200192915050565b602081526000611e946020830184612032565b60006020828403121561208357600080fd5b5035919050565b60006001600160401b038211156120a3576120a3611f1f565b5060051b60200190565b600082601f8301126120be57600080fd5b813560206120cb8261208a565b6040516120d88282611f35565b83815260059390931b85018201928281019150868411156120f857600080fd5b8286015b8481101561211357803583529183019183016120fc565b509695505050505050565b600082601f83011261212f57600080fd5b611e9483833560208501611f61565b6000806000806080858703121561215457600080fd5b843561215f81611eab565b935060208501356001600160401b038082111561217b57600080fd5b612187888389016120ad565b9450604087013591508082111561219d57600080fd5b6121a9888389016120ad565b935060608701359150808211156121bf57600080fd5b506121cc8782880161211e565b91505092959194509250565b600080600080600060a086880312156121f057600080fd5b85356121fb81611eab565b9450602086013561220b81611eab565b935060408601356001600160401b038082111561222757600080fd5b61223389838a016120ad565b9450606088013591508082111561224957600080fd5b61225589838a016120ad565b9350608088013591508082111561226b57600080fd5b506122788882890161211e565b9150509295509295909350565b60006020828403121561229757600080fd5b8135611e9481611eab565b600080604083850312156122b557600080fd5b82356001600160401b03808211156122cc57600080fd5b818501915085601f8301126122e057600080fd5b813560206122ed8261208a565b6040516122fa8282611f35565b83815260059390931b850182019282810191508984111561231a57600080fd5b948201945b8386101561234157853561233281611eab565b8252948201949082019061231f565b9650508601359250508082111561235757600080fd5b50612364858286016120ad565b9150509250929050565b600081518084526020808501945080840160005b8381101561239e57815187529582019590820190600101612382565b509495945050505050565b602081526000611e94602083018461236e565b600080604083850312156123cf57600080fd5b82356123da81611eab565b915060208301356001600160401b038111156123f557600080fd5b6123648582860161211e565b60008083601f84011261241357600080fd5b5081356001600160401b0381111561242a57600080fd5b60208301915083602082850101111561244257600080fd5b9250929050565b60008060008060008060006080888a03121561246457600080fd5b873561246f81611eab565b965060208801356001600160401b038082111561248b57600080fd5b6124978b838c01612401565b909850965060408a01359150808211156124b057600080fd5b6124bc8b838c01612401565b909650945060608a01359150808211156124d557600080fd5b506124e28a828b01612401565b989b979a50959850939692959293505050565b60008060006060848603121561250a57600080fd5b833561251581611eab565b925060208401356001600160401b038082111561253157600080fd5b61253d878388016120ad565b9350604086013591508082111561255357600080fd5b50612560868287016120ad565b9150509250925092565b6000806000806080858703121561258057600080fd5b843561258b81611eab565b9350602085013592506040850135915060608501356001600160401b038111156125b457600080fd5b6121cc8782880161211e565b600080604083850312156125d357600080fd5b82356125de81611eab565b9150602083013580151581146125f357600080fd5b809150509250929050565b6000806040838503121561261157600080fd5b823561261c81611eab565b915060208301356125f381611eab565b600080600080600060a0868803121561264457600080fd5b853561264f81611eab565b9450602086013561265f81611eab565b9350604086013592506060860135915060808601356001600160401b0381111561268857600080fd5b6122788882890161211e565b6000806000606084860312156126a957600080fd5b83356126b481611eab565b95602085013595506040909401359392505050565b600181811c908216806126dd57607f821691505b6020821081036126fd57634e487b7160e01b600052602260045260246000fd5b50919050565b6020808252602e908201527f455243313135353a2063616c6c6572206973206e6f7420746f6b656e206f776e60408201526d195c881bdc88185c1c1c9bdd995960921b606082015260800190565b6020808252602c908201527f46756e6374696f6e206d7573742062652063616c6c6564207468726f7567682060408201526b19195b1959d85d1958d85b1b60a21b606082015260800190565b6020808252602c908201527f46756e6374696f6e206d7573742062652063616c6c6564207468726f7567682060408201526b6163746976652070726f787960a01b606082015260800190565b634e487b7160e01b600052603260045260246000fd5b634e487b7160e01b600052601160045260246000fd5b600060018201612827576128276127ff565b5060010190565b601f82111561120357600081815260208120601f850160051c810160208610156128555750805b601f850160051c820191505b8181101561114c57828155600101612861565b6001600160401b0383111561288b5761288b611f1f565b61289f8361289983546126c9565b8361282e565b6000601f8411600181146128d357600085156128bb5750838201355b600019600387901b1c1916600186901b1783556106ee565b600083815260209020601f19861690835b8281101561290457868501358255602094850194600190920191016128e4565b50868210156129215760001960f88860031b161c19848701351681555b505060018560011b0183555050505050565b81516001600160401b0381111561294c5761294c611f1f565b6129608161295a84546126c9565b8461282e565b602080601f831160018114612995576000841561297d5750858301515b600019600386901b1c1916600185901b17855561114c565b600085815260208120601f198616915b828110156129c4578886015182559484019460019091019084016129a5565b50858210156129e25787850151600019600388901b60f8161c191681555b5050505050600190811b01905550565b60208082526021908201527f455243313135353a206d696e7420746f20746865207a65726f206164647265736040820152607360f81b606082015260800190565b60208082526028908201527f455243313135353a2069647320616e6420616d6f756e7473206c656e677468206040820152670dad2e6dac2e8c6d60c31b606082015260800190565b80820180821115610447576104476127ff565b604081526000612aa1604083018561236e565b8281036020840152611dce818561236e565b60208082526025908201527f455243313135353a207472616e7366657220746f20746865207a65726f206164604082015264647265737360d81b606082015260800190565b6020808252602a908201527f455243313135353a20696e73756666696369656e742062616c616e636520666f60408201526939103a3930b739b332b960b11b606082015260800190565b600060208284031215612b5457600080fd5b5051919050565b6020808252602b908201527f496e697469616c697a61626c653a20636f6e7472616374206973206e6f74206960408201526a6e697469616c697a696e6760a81b606082015260800190565b60208082526023908201527f455243313135353a206275726e2066726f6d20746865207a65726f206164647260408201526265737360e81b606082015260800190565b60208082526024908201527f455243313135353a206275726e20616d6f756e7420657863656564732062616c604082015263616e636560e01b606082015260800190565b6001600160a01b0386811682528516602082015260a060408201819052600090612c599083018661236e565b8281036060840152612c6b818661236e565b90508281036080840152612c7f8185612032565b98975050505050505050565b600060208284031215612c9d57600080fd5b8151611e9481611eec565b600060033d1115610a915760046000803e5060005160e01c90565b600060443d1015612cd15790565b6040516003193d81016004833e81513d6001600160401b038160248401118184111715612d0057505050505090565b8285019150815181811115612d185750505050505090565b843d8701016020828501011115612d325750505050505090565b612d4160208286010187611f35565b509095945050505050565b60208082526028908201527f455243313135353a204552433131353552656365697665722072656a656374656040820152676420746f6b656e7360c01b606082015260800190565b6001600160a01b03868116825285166020820152604081018490526060810183905260a060808201819052600090612dce90830184612032565b979650505050505050565b60008251612deb81846020870161200e565b919091019291505056fe360894a13ba1a3210667c828492db98dca3e2076cc3735a920a3ca505d382bbc416464726573733a206c6f772d6c6576656c2064656c65676174652063616c6c206661696c6564a264697066735822122005ad5ac58cbc34a719befd87132e79ff703b460441052268dee8707b02d55baa64736f6c63430008110033",
  "linkReferences": {},
  "deployedLinkReferences": {}
}